{
  "_format": "hh-sol-artifact-1",
  "contractName": "ImpactQuest",
  "sourceName": "contracts/ImpactQuest.sol",
  "abi": [
    {
      "inputs": [
        {
          "internalType": "address",
          "name": "_oracleAddress",
          "type": "address"
        }
      ],
      "stateMutability": "nonpayable",
      "type": "constructor"
    },
    {
      "inputs": [
        {
          "internalType": "address",
          "name": "spender",
          "type": "address"
        },
        {
          "internalType": "uint256",
          "name": "allowance",
          "type": "uint256"
        },
        {
          "internalType": "uint256",
          "name": "needed",
          "type": "uint256"
        }
      ],
      "name": "ERC20InsufficientAllowance",
      "type": "error"
    },
    {
      "inputs": [
        {
          "internalType": "address",
          "name": "sender",
          "type": "address"
        },
        {
          "internalType": "uint256",
          "name": "balance",
          "type": "uint256"
        },
        {
          "internalType": "uint256",
          "name": "needed",
          "type": "uint256"
        }
      ],
      "name": "ERC20InsufficientBalance",
      "type": "error"
    },
    {
      "inputs": [
        {
          "internalType": "address",
          "name": "approver",
          "type": "address"
        }
      ],
      "name": "ERC20InvalidApprover",
      "type": "error"
    },
    {
      "inputs": [
        {
          "internalType": "address",
          "name": "receiver",
          "type": "address"
        }
      ],
      "name": "ERC20InvalidReceiver",
      "type": "error"
    },
    {
      "inputs": [
        {
          "internalType": "address",
          "name": "sender",
          "type": "address"
        }
      ],
      "name": "ERC20InvalidSender",
      "type": "error"
    },
    {
      "inputs": [
        {
          "internalType": "address",
          "name": "spender",
          "type": "address"
        }
      ],
      "name": "ERC20InvalidSpender",
      "type": "error"
    },
    {
      "inputs": [
        {
          "internalType": "address",
          "name": "owner",
          "type": "address"
        }
      ],
      "name": "OwnableInvalidOwner",
      "type": "error"
    },
    {
      "inputs": [
        {
          "internalType": "address",
          "name": "account",
          "type": "address"
        }
      ],
      "name": "OwnableUnauthorizedAccount",
      "type": "error"
    },
    {
      "inputs": [],
      "name": "ReentrancyGuardReentrantCall",
      "type": "error"
    },
    {
      "anonymous": false,
      "inputs": [
        {
          "indexed": true,
          "internalType": "address",
          "name": "owner",
          "type": "address"
        },
        {
          "indexed": true,
          "internalType": "address",
          "name": "spender",
          "type": "address"
        },
        {
          "indexed": false,
          "internalType": "uint256",
          "name": "value",
          "type": "uint256"
        }
      ],
      "name": "Approval",
      "type": "event"
    },
    {
      "anonymous": false,
      "inputs": [
        {
          "indexed": true,
          "internalType": "address",
          "name": "creator",
          "type": "address"
        },
        {
          "indexed": true,
          "internalType": "uint256",
          "name": "questId",
          "type": "uint256"
        },
        {
          "indexed": false,
          "internalType": "uint256",
          "name": "rewardAmount",
          "type": "uint256"
        },
        {
          "indexed": false,
          "internalType": "uint256",
          "name": "totalCompletions",
          "type": "uint256"
        }
      ],
      "name": "CreatorRewarded",
      "type": "event"
    },
    {
      "anonymous": false,
      "inputs": [
        {
          "indexed": true,
          "internalType": "address",
          "name": "user",
          "type": "address"
        },
        {
          "indexed": false,
          "internalType": "enum ImpactQuest.UserLevel",
          "name": "oldLevel",
          "type": "uint8"
        },
        {
          "indexed": false,
          "internalType": "enum ImpactQuest.UserLevel",
          "name": "newLevel",
          "type": "uint8"
        },
        {
          "indexed": false,
          "internalType": "uint256",
          "name": "timestamp",
          "type": "uint256"
        }
      ],
      "name": "LevelUp",
      "type": "event"
    },
    {
      "anonymous": false,
      "inputs": [
        {
          "indexed": true,
          "internalType": "address",
          "name": "oldOracle",
          "type": "address"
        },
        {
          "indexed": true,
          "internalType": "address",
          "name": "newOracle",
          "type": "address"
        }
      ],
      "name": "OracleAddressUpdated",
      "type": "event"
    },
    {
      "anonymous": false,
      "inputs": [
        {
          "indexed": true,
          "internalType": "address",
          "name": "previousOwner",
          "type": "address"
        },
        {
          "indexed": true,
          "internalType": "address",
          "name": "newOwner",
          "type": "address"
        }
      ],
      "name": "OwnershipTransferred",
      "type": "event"
    },
    {
      "anonymous": false,
      "inputs": [
        {
          "indexed": true,
          "internalType": "address",
          "name": "user",
          "type": "address"
        },
        {
          "indexed": true,
          "internalType": "uint256",
          "name": "questId",
          "type": "uint256"
        },
        {
          "indexed": false,
          "internalType": "uint256",
          "name": "timestamp",
          "type": "uint256"
        },
        {
          "indexed": false,
          "internalType": "bytes32",
          "name": "proofHash",
          "type": "bytes32"
        },
        {
          "indexed": false,
          "internalType": "uint256",
          "name": "rewardAmount",
          "type": "uint256"
        }
      ],
      "name": "QuestCompleted",
      "type": "event"
    },
    {
      "anonymous": false,
      "inputs": [
        {
          "indexed": true,
          "internalType": "uint256",
          "name": "questId",
          "type": "uint256"
        },
        {
          "indexed": false,
          "internalType": "string",
          "name": "name",
          "type": "string"
        },
        {
          "indexed": false,
          "internalType": "uint256",
          "name": "rewardAmount",
          "type": "uint256"
        },
        {
          "indexed": false,
          "internalType": "uint256",
          "name": "impactScore",
          "type": "uint256"
        }
      ],
      "name": "QuestCreated",
      "type": "event"
    },
    {
      "anonymous": false,
      "inputs": [
        {
          "indexed": true,
          "internalType": "uint256",
          "name": "questId",
          "type": "uint256"
        },
        {
          "indexed": false,
          "internalType": "bool",
          "name": "isActive",
          "type": "bool"
        }
      ],
      "name": "QuestUpdated",
      "type": "event"
    },
    {
      "anonymous": false,
      "inputs": [
        {
          "indexed": true,
          "internalType": "uint256",
          "name": "transactionId",
          "type": "uint256"
        },
        {
          "indexed": true,
          "internalType": "address",
          "name": "user",
          "type": "address"
        },
        {
          "indexed": false,
          "internalType": "enum ImpactQuest.RewardTransactionType",
          "name": "transactionType",
          "type": "uint8"
        },
        {
          "indexed": false,
          "internalType": "int256",
          "name": "amount",
          "type": "int256"
        },
        {
          "indexed": false,
          "internalType": "uint256",
          "name": "timestamp",
          "type": "uint256"
        }
      ],
      "name": "RewardTransactionRecorded",
      "type": "event"
    },
    {
      "anonymous": false,
      "inputs": [
        {
          "indexed": true,
          "internalType": "address",
          "name": "from",
          "type": "address"
        },
        {
          "indexed": true,
          "internalType": "address",
          "name": "to",
          "type": "address"
        },
        {
          "indexed": false,
          "internalType": "uint256",
          "name": "value",
          "type": "uint256"
        }
      ],
      "name": "Transfer",
      "type": "event"
    },
    {
      "anonymous": false,
      "inputs": [
        {
          "indexed": true,
          "internalType": "address",
          "name": "user",
          "type": "address"
        },
        {
          "indexed": false,
          "internalType": "uint256",
          "name": "timestamp",
          "type": "uint256"
        }
      ],
      "name": "UserJoined",
      "type": "event"
    },
    {
      "inputs": [],
      "name": "SAPLING_THRESHOLD",
      "outputs": [
        {
          "internalType": "uint256",
          "name": "",
          "type": "uint256"
        }
      ],
      "stateMutability": "view",
      "type": "function"
    },
    {
      "inputs": [],
      "name": "SEEDLING_THRESHOLD",
      "outputs": [
        {
          "internalType": "uint256",
          "name": "",
          "type": "uint256"
        }
      ],
      "stateMutability": "view",
      "type": "function"
    },
    {
      "inputs": [],
      "name": "SPROUT_THRESHOLD",
      "outputs": [
        {
          "internalType": "uint256",
          "name": "",
          "type": "uint256"
        }
      ],
      "stateMutability": "view",
      "type": "function"
    },
    {
      "inputs": [],
      "name": "TOKENS_PER_QUEST",
      "outputs": [
        {
          "internalType": "uint256",
          "name": "",
          "type": "uint256"
        }
      ],
      "stateMutability": "view",
      "type": "function"
    },
    {
      "inputs": [],
      "name": "TREE_THRESHOLD",
      "outputs": [
        {
          "internalType": "uint256",
          "name": "",
          "type": "uint256"
        }
      ],
      "stateMutability": "view",
      "type": "function"
    },
    {
      "inputs": [
        {
          "internalType": "address",
          "name": "owner",
          "type": "address"
        },
        {
          "internalType": "address",
          "name": "spender",
          "type": "address"
        }
      ],
      "name": "allowance",
      "outputs": [
        {
          "internalType": "uint256",
          "name": "",
          "type": "uint256"
        }
      ],
      "stateMutability": "view",
      "type": "function"
    },
    {
      "inputs": [
        {
          "internalType": "address",
          "name": "spender",
          "type": "address"
        },
        {
          "internalType": "uint256",
          "name": "value",
          "type": "uint256"
        }
      ],
      "name": "approve",
      "outputs": [
        {
          "internalType": "bool",
          "name": "",
          "type": "bool"
        }
      ],
      "stateMutability": "nonpayable",
      "type": "function"
    },
    {
      "inputs": [
        {
          "internalType": "address",
          "name": "account",
          "type": "address"
        }
      ],
      "name": "balanceOf",
      "outputs": [
        {
          "internalType": "uint256",
          "name": "",
          "type": "uint256"
        }
      ],
      "stateMutability": "view",
      "type": "function"
    },
    {
      "inputs": [
        {
          "internalType": "address",
          "name": "user",
          "type": "address"
        },
        {
          "internalType": "uint256",
          "name": "questId",
          "type": "uint256"
        }
      ],
      "name": "canCompleteQuest",
      "outputs": [
        {
          "internalType": "bool",
          "name": "",
          "type": "bool"
        }
      ],
      "stateMutability": "view",
      "type": "function"
    },
    {
      "inputs": [
        {
          "internalType": "address",
          "name": "user",
          "type": "address"
        },
        {
          "internalType": "uint256",
          "name": "questId",
          "type": "uint256"
        },
        {
          "internalType": "bytes32",
          "name": "proofHash",
          "type": "bytes32"
        }
      ],
      "name": "completeQuest",
      "outputs": [],
      "stateMutability": "nonpayable",
      "type": "function"
    },
    {
      "inputs": [
        {
          "internalType": "uint256",
          "name": "",
          "type": "uint256"
        }
      ],
      "name": "completionHistory",
      "outputs": [
        {
          "internalType": "uint256",
          "name": "questId",
          "type": "uint256"
        },
        {
          "internalType": "address",
          "name": "user",
          "type": "address"
        },
        {
          "internalType": "uint256",
          "name": "timestamp",
          "type": "uint256"
        },
        {
          "internalType": "bytes32",
          "name": "proofHash",
          "type": "bytes32"
        },
        {
          "internalType": "uint256",
          "name": "rewardAmount",
          "type": "uint256"
        },
        {
          "internalType": "bool",
          "name": "verified",
          "type": "bool"
        }
      ],
      "stateMutability": "view",
      "type": "function"
    },
    {
      "inputs": [
        {
          "internalType": "string",
          "name": "name",
          "type": "string"
        },
        {
          "internalType": "string",
          "name": "description",
          "type": "string"
        },
        {
          "internalType": "uint256",
          "name": "rewardAmount",
          "type": "uint256"
        },
        {
          "internalType": "uint256",
          "name": "impactScore",
          "type": "uint256"
        },
        {
          "internalType": "uint256",
          "name": "cooldownPeriod",
          "type": "uint256"
        },
        {
          "internalType": "enum ImpactQuest.QuestCategory",
          "name": "category",
          "type": "uint8"
        },
        {
          "internalType": "uint256",
          "name": "creatorRewardPerCompletion",
          "type": "uint256"
        }
      ],
      "name": "createQuest",
      "outputs": [
        {
          "internalType": "uint256",
          "name": "",
          "type": "uint256"
        }
      ],
      "stateMutability": "nonpayable",
      "type": "function"
    },
    {
      "inputs": [],
      "name": "decimals",
      "outputs": [
        {
          "internalType": "uint8",
          "name": "",
          "type": "uint8"
        }
      ],
      "stateMutability": "view",
      "type": "function"
    },
    {
      "inputs": [
        {
          "internalType": "enum ImpactQuest.QuestCategory",
          "name": "category",
          "type": "uint8"
        }
      ],
      "name": "getActiveQuestsByCategory",
      "outputs": [
        {
          "internalType": "uint256[]",
          "name": "",
          "type": "uint256[]"
        }
      ],
      "stateMutability": "view",
      "type": "function"
    },
    {
      "inputs": [
        {
          "internalType": "enum ImpactQuest.QuestCategory",
          "name": "category",
          "type": "uint8"
        }
      ],
      "name": "getCategoryName",
      "outputs": [
        {
          "internalType": "string",
          "name": "",
          "type": "string"
        }
      ],
      "stateMutability": "pure",
      "type": "function"
    },
    {
      "inputs": [
        {
          "internalType": "uint256",
          "name": "index",
          "type": "uint256"
        }
      ],
      "name": "getCompletion",
      "outputs": [
        {
          "internalType": "uint256",
          "name": "questId",
          "type": "uint256"
        },
        {
          "internalType": "address",
          "name": "user",
          "type": "address"
        },
        {
          "internalType": "uint256",
          "name": "timestamp",
          "type": "uint256"
        },
        {
          "internalType": "bytes32",
          "name": "proofHash",
          "type": "bytes32"
        },
        {
          "internalType": "uint256",
          "name": "rewardAmount",
          "type": "uint256"
        },
        {
          "internalType": "bool",
          "name": "verified",
          "type": "bool"
        }
      ],
      "stateMutability": "view",
      "type": "function"
    },
    {
      "inputs": [
        {
          "internalType": "uint256",
          "name": "questId",
          "type": "uint256"
        }
      ],
      "name": "getQuest",
      "outputs": [
        {
          "internalType": "uint256",
          "name": "id",
          "type": "uint256"
        },
        {
          "internalType": "string",
          "name": "name",
          "type": "string"
        },
        {
          "internalType": "string",
          "name": "description",
          "type": "string"
        },
        {
          "internalType": "uint256",
          "name": "rewardAmount",
          "type": "uint256"
        },
        {
          "internalType": "uint256",
          "name": "impactScore",
          "type": "uint256"
        },
        {
          "internalType": "bool",
          "name": "isActive",
          "type": "bool"
        },
        {
          "internalType": "uint256",
          "name": "cooldownPeriod",
          "type": "uint256"
        },
        {
          "internalType": "enum ImpactQuest.QuestCategory",
          "name": "category",
          "type": "uint8"
        },
        {
          "internalType": "address",
          "name": "creator",
          "type": "address"
        },
        {
          "internalType": "uint256",
          "name": "creatorRewardPerCompletion",
          "type": "uint256"
        },
        {
          "internalType": "uint256",
          "name": "totalCompletions",
          "type": "uint256"
        }
      ],
      "stateMutability": "view",
      "type": "function"
    },
    {
      "inputs": [
        {
          "internalType": "enum ImpactQuest.QuestCategory",
          "name": "category",
          "type": "uint8"
        }
      ],
      "name": "getQuestsByCategory",
      "outputs": [
        {
          "internalType": "uint256[]",
          "name": "",
          "type": "uint256[]"
        }
      ],
      "stateMutability": "view",
      "type": "function"
    },
    {
      "inputs": [],
      "name": "getTotalCompletions",
      "outputs": [
        {
          "internalType": "uint256",
          "name": "",
          "type": "uint256"
        }
      ],
      "stateMutability": "view",
      "type": "function"
    },
    {
      "inputs": [],
      "name": "getTotalTransactions",
      "outputs": [
        {
          "internalType": "uint256",
          "name": "",
          "type": "uint256"
        }
      ],
      "stateMutability": "view",
      "type": "function"
    },
    {
      "inputs": [
        {
          "internalType": "uint256",
          "name": "transactionId",
          "type": "uint256"
        }
      ],
      "name": "getTransaction",
      "outputs": [
        {
          "internalType": "uint256",
          "name": "id",
          "type": "uint256"
        },
        {
          "internalType": "address",
          "name": "user",
          "type": "address"
        },
        {
          "internalType": "enum ImpactQuest.RewardTransactionType",
          "name": "transactionType",
          "type": "uint8"
        },
        {
          "internalType": "int256",
          "name": "amount",
          "type": "int256"
        },
        {
          "internalType": "uint256",
          "name": "questId",
          "type": "uint256"
        },
        {
          "internalType": "string",
          "name": "description",
          "type": "string"
        },
        {
          "internalType": "uint256",
          "name": "timestamp",
          "type": "uint256"
        },
        {
          "internalType": "enum ImpactQuest.UserLevel",
          "name": "previousLevel",
          "type": "uint8"
        },
        {
          "internalType": "enum ImpactQuest.UserLevel",
          "name": "newLevel",
          "type": "uint8"
        }
      ],
      "stateMutability": "view",
      "type": "function"
    },
    {
      "inputs": [
        {
          "internalType": "address",
          "name": "user",
          "type": "address"
        }
      ],
      "name": "getUserLevelName",
      "outputs": [
        {
          "internalType": "string",
          "name": "",
          "type": "string"
        }
      ],
      "stateMutability": "view",
      "type": "function"
    },
    {
      "inputs": [
        {
          "internalType": "address",
          "name": "user",
          "type": "address"
        }
      ],
      "name": "getUserProfile",
      "outputs": [
        {
          "internalType": "enum ImpactQuest.UserLevel",
          "name": "level",
          "type": "uint8"
        },
        {
          "internalType": "uint256",
          "name": "totalImpactScore",
          "type": "uint256"
        },
        {
          "internalType": "uint256",
          "name": "questsCompleted",
          "type": "uint256"
        },
        {
          "internalType": "uint256",
          "name": "lastQuestTimestamp",
          "type": "uint256"
        },
        {
          "internalType": "uint256",
          "name": "joinedTimestamp",
          "type": "uint256"
        },
        {
          "internalType": "bool",
          "name": "isActive",
          "type": "bool"
        }
      ],
      "stateMutability": "view",
      "type": "function"
    },
    {
      "inputs": [
        {
          "internalType": "address",
          "name": "user",
          "type": "address"
        },
        {
          "internalType": "enum ImpactQuest.QuestCategory",
          "name": "category",
          "type": "uint8"
        }
      ],
      "name": "getUserQuestsByCategory",
      "outputs": [
        {
          "internalType": "uint256",
          "name": "count",
          "type": "uint256"
        }
      ],
      "stateMutability": "view",
      "type": "function"
    },
    {
      "inputs": [
        {
          "internalType": "address",
          "name": "user",
          "type": "address"
        },
        {
          "internalType": "uint256",
          "name": "count",
          "type": "uint256"
        }
      ],
      "name": "getUserRecentTransactions",
      "outputs": [
        {
          "components": [
            {
              "internalType": "uint256",
              "name": "id",
              "type": "uint256"
            },
            {
              "internalType": "address",
              "name": "user",
              "type": "address"
            },
            {
              "internalType": "enum ImpactQuest.RewardTransactionType",
              "name": "transactionType",
              "type": "uint8"
            },
            {
              "internalType": "int256",
              "name": "amount",
              "type": "int256"
            },
            {
              "internalType": "uint256",
              "name": "questId",
              "type": "uint256"
            },
            {
              "internalType": "string",
              "name": "description",
              "type": "string"
            },
            {
              "internalType": "uint256",
              "name": "timestamp",
              "type": "uint256"
            },
            {
              "internalType": "enum ImpactQuest.UserLevel",
              "name": "previousLevel",
              "type": "uint8"
            },
            {
              "internalType": "enum ImpactQuest.UserLevel",
              "name": "newLevel",
              "type": "uint8"
            }
          ],
          "internalType": "struct ImpactQuest.RewardTransaction[]",
          "name": "",
          "type": "tuple[]"
        }
      ],
      "stateMutability": "view",
      "type": "function"
    },
    {
      "inputs": [
        {
          "internalType": "address",
          "name": "user",
          "type": "address"
        }
      ],
      "name": "getUserTransactionCount",
      "outputs": [
        {
          "internalType": "uint256",
          "name": "",
          "type": "uint256"
        }
      ],
      "stateMutability": "view",
      "type": "function"
    },
    {
      "inputs": [
        {
          "internalType": "address",
          "name": "user",
          "type": "address"
        }
      ],
      "name": "getUserTransactionIds",
      "outputs": [
        {
          "internalType": "uint256[]",
          "name": "",
          "type": "uint256[]"
        }
      ],
      "stateMutability": "view",
      "type": "function"
    },
    {
      "inputs": [],
      "name": "joinImpactQuest",
      "outputs": [],
      "stateMutability": "nonpayable",
      "type": "function"
    },
    {
      "inputs": [
        {
          "internalType": "address",
          "name": "",
          "type": "address"
        },
        {
          "internalType": "uint256",
          "name": "",
          "type": "uint256"
        }
      ],
      "name": "lastQuestCompletionTime",
      "outputs": [
        {
          "internalType": "uint256",
          "name": "",
          "type": "uint256"
        }
      ],
      "stateMutability": "view",
      "type": "function"
    },
    {
      "inputs": [],
      "name": "name",
      "outputs": [
        {
          "internalType": "string",
          "name": "",
          "type": "string"
        }
      ],
      "stateMutability": "view",
      "type": "function"
    },
    {
      "inputs": [],
      "name": "nextQuestId",
      "outputs": [
        {
          "internalType": "uint256",
          "name": "",
          "type": "uint256"
        }
      ],
      "stateMutability": "view",
      "type": "function"
    },
    {
      "inputs": [],
      "name": "nextTransactionId",
      "outputs": [
        {
          "internalType": "uint256",
          "name": "",
          "type": "uint256"
        }
      ],
      "stateMutability": "view",
      "type": "function"
    },
    {
      "inputs": [],
      "name": "oracleAddress",
      "outputs": [
        {
          "internalType": "address",
          "name": "",
          "type": "address"
        }
      ],
      "stateMutability": "view",
      "type": "function"
    },
    {
      "inputs": [],
      "name": "owner",
      "outputs": [
        {
          "internalType": "address",
          "name": "",
          "type": "address"
        }
      ],
      "stateMutability": "view",
      "type": "function"
    },
    {
      "inputs": [
        {
          "internalType": "uint256",
          "name": "",
          "type": "uint256"
        }
      ],
      "name": "quests",
      "outputs": [
        {
          "internalType": "uint256",
          "name": "id",
          "type": "uint256"
        },
        {
          "internalType": "string",
          "name": "name",
          "type": "string"
        },
        {
          "internalType": "string",
          "name": "description",
          "type": "string"
        },
        {
          "internalType": "uint256",
          "name": "rewardAmount",
          "type": "uint256"
        },
        {
          "internalType": "uint256",
          "name": "impactScore",
          "type": "uint256"
        },
        {
          "internalType": "bool",
          "name": "isActive",
          "type": "bool"
        },
        {
          "internalType": "uint256",
          "name": "cooldownPeriod",
          "type": "uint256"
        },
        {
          "internalType": "enum ImpactQuest.QuestCategory",
          "name": "category",
          "type": "uint8"
        },
        {
          "internalType": "address",
          "name": "creator",
          "type": "address"
        },
        {
          "internalType": "uint256",
          "name": "creatorRewardPerCompletion",
          "type": "uint256"
        },
        {
          "internalType": "uint256",
          "name": "totalCompletions",
          "type": "uint256"
        }
      ],
      "stateMutability": "view",
      "type": "function"
    },
    {
      "inputs": [
        {
          "internalType": "address",
          "name": "user",
          "type": "address"
        },
        {
          "internalType": "uint256",
          "name": "tokensSpent",
          "type": "uint256"
        },
        {
          "internalType": "string",
          "name": "shopName",
          "type": "string"
        }
      ],
      "name": "recordRedemption",
      "outputs": [],
      "stateMutability": "nonpayable",
      "type": "function"
    },
    {
      "inputs": [
        {
          "internalType": "address",
          "name": "user",
          "type": "address"
        },
        {
          "internalType": "uint256",
          "name": "tokensRefunded",
          "type": "uint256"
        },
        {
          "internalType": "string",
          "name": "reason",
          "type": "string"
        }
      ],
      "name": "recordRedemptionRefund",
      "outputs": [],
      "stateMutability": "nonpayable",
      "type": "function"
    },
    {
      "inputs": [],
      "name": "renounceOwnership",
      "outputs": [],
      "stateMutability": "nonpayable",
      "type": "function"
    },
    {
      "inputs": [
        {
          "internalType": "uint256",
          "name": "",
          "type": "uint256"
        }
      ],
      "name": "rewardTransactions",
      "outputs": [
        {
          "internalType": "uint256",
          "name": "id",
          "type": "uint256"
        },
        {
          "internalType": "address",
          "name": "user",
          "type": "address"
        },
        {
          "internalType": "enum ImpactQuest.RewardTransactionType",
          "name": "transactionType",
          "type": "uint8"
        },
        {
          "internalType": "int256",
          "name": "amount",
          "type": "int256"
        },
        {
          "internalType": "uint256",
          "name": "questId",
          "type": "uint256"
        },
        {
          "internalType": "string",
          "name": "description",
          "type": "string"
        },
        {
          "internalType": "uint256",
          "name": "timestamp",
          "type": "uint256"
        },
        {
          "internalType": "enum ImpactQuest.UserLevel",
          "name": "previousLevel",
          "type": "uint8"
        },
        {
          "internalType": "enum ImpactQuest.UserLevel",
          "name": "newLevel",
          "type": "uint8"
        }
      ],
      "stateMutability": "view",
      "type": "function"
    },
    {
      "inputs": [
        {
          "internalType": "address",
          "name": "newOracle",
          "type": "address"
        }
      ],
      "name": "setOracleAddress",
      "outputs": [],
      "stateMutability": "nonpayable",
      "type": "function"
    },
    {
      "inputs": [
        {
          "internalType": "uint256",
          "name": "questId",
          "type": "uint256"
        },
        {
          "internalType": "bool",
          "name": "isActive",
          "type": "bool"
        }
      ],
      "name": "setQuestActive",
      "outputs": [],
      "stateMutability": "nonpayable",
      "type": "function"
    },
    {
      "inputs": [],
      "name": "symbol",
      "outputs": [
        {
          "internalType": "string",
          "name": "",
          "type": "string"
        }
      ],
      "stateMutability": "view",
      "type": "function"
    },
    {
      "inputs": [],
      "name": "totalSupply",
      "outputs": [
        {
          "internalType": "uint256",
          "name": "",
          "type": "uint256"
        }
      ],
      "stateMutability": "view",
      "type": "function"
    },
    {
      "inputs": [
        {
          "internalType": "address",
          "name": "to",
          "type": "address"
        },
        {
          "internalType": "uint256",
          "name": "value",
          "type": "uint256"
        }
      ],
      "name": "transfer",
      "outputs": [
        {
          "internalType": "bool",
          "name": "",
          "type": "bool"
        }
      ],
      "stateMutability": "nonpayable",
      "type": "function"
    },
    {
      "inputs": [
        {
          "internalType": "address",
          "name": "from",
          "type": "address"
        },
        {
          "internalType": "address",
          "name": "to",
          "type": "address"
        },
        {
          "internalType": "uint256",
          "name": "value",
          "type": "uint256"
        }
      ],
      "name": "transferFrom",
      "outputs": [
        {
          "internalType": "bool",
          "name": "",
          "type": "bool"
        }
      ],
      "stateMutability": "nonpayable",
      "type": "function"
    },
    {
      "inputs": [
        {
          "internalType": "address",
          "name": "newOwner",
          "type": "address"
        }
      ],
      "name": "transferOwnership",
      "outputs": [],
      "stateMutability": "nonpayable",
      "type": "function"
    },
    {
      "inputs": [
        {
          "internalType": "bytes32",
          "name": "",
          "type": "bytes32"
        }
      ],
      "name": "usedProofHashes",
      "outputs": [
        {
          "internalType": "bool",
          "name": "",
          "type": "bool"
        }
      ],
      "stateMutability": "view",
      "type": "function"
    },
    {
      "inputs": [
        {
          "internalType": "address",
          "name": "",
          "type": "address"
        }
      ],
      "name": "userProfiles",
      "outputs": [
        {
          "internalType": "enum ImpactQuest.UserLevel",
          "name": "level",
          "type": "uint8"
        },
        {
          "internalType": "uint256",
          "name": "totalImpactScore",
          "type": "uint256"
        },
        {
          "internalType": "uint256",
          "name": "questsCompleted",
          "type": "uint256"
        },
        {
          "internalType": "uint256",
          "name": "lastQuestTimestamp",
          "type": "uint256"
        },
        {
          "internalType": "uint256",
          "name": "joinedTimestamp",
          "type": "uint256"
        },
        {
          "internalType": "bool",
          "name": "isActive",
          "type": "bool"
        }
      ],
      "stateMutability": "view",
      "type": "function"
    }
  ],
  "bytecode": "0x60806040526001600f5560016010553480156200001b57600080fd5b5060405162004271380380620042718339810160408190526200003e91620001b9565b336040518060400160405280601181526020017024b6b830b1ba28bab2b9ba102a37b5b2b760791b815250604051806040016040528060038152602001620494d560ec1b815250816003908162000096919062000290565b506004620000a5828262000290565b5050506001600160a01b038116620000d857604051631e4fbdf760e01b8152600060048201526024015b60405180910390fd5b620000e38162000167565b5060016006556001600160a01b038116620001415760405162461bcd60e51b815260206004820152601660248201527f496e76616c6964206f7261636c652061646472657373000000000000000000006044820152606401620000cf565b601180546001600160a01b0319166001600160a01b03929092169190911790556200035c565b600580546001600160a01b038381166001600160a01b0319831681179093556040519116919082907f8be0079c531659141344cd1fd0a4f28419497f9722a3daafe3b4186f6b6457e090600090a35050565b600060208284031215620001cc57600080fd5b81516001600160a01b0381168114620001e457600080fd5b9392505050565b634e487b7160e01b600052604160045260246000fd5b600181811c908216806200021657607f821691505b6020821081036200023757634e487b7160e01b600052602260045260246000fd5b50919050565b601f8211156200028b57600081815260208120601f850160051c81016020861015620002665750805b601f850160051c820191505b81811015620002875782815560010162000272565b5050505b505050565b81516001600160401b03811115620002ac57620002ac620001eb565b620002c481620002bd845462000201565b846200023d565b602080601f831160018114620002fc5760008415620002e35750858301515b600019600386901b1c1916600185901b17855562000287565b600085815260208120601f198616915b828110156200032d578886015182559484019460019091019084016200030c565b50858210156200034c5787850151600019600388901b60f8161c191681555b5050505050600190811b01905550565b613f05806200036c6000396000f3fe608060405234801561001057600080fd5b50600436106102a05760003560e01c80638da5cb5b11610167578063d87318b2116100ce578063ede9646e11610087578063ede9646e14610699578063f2893e24146106ac578063f2fde38b146106bf578063f864715d146106d2578063fb9e9d9a146106e5578063fd47465c146106f857600080fd5b8063d87318b2146105e6578063d8f3384014610609578063dd62ed3e14610632578063e085f9801461066b578063e24785781461067e578063e4815c481461069157600080fd5b8063a9059cbb11610120578063a9059cbb1461055c578063b5c604ff1461056f578063bb39f56f14610577578063d2a1a10a146105c1578063d638c983146105d4578063d7ca38f3146105dd57600080fd5b80638da5cb5b146104ee5780639047a9691461051357806395d89b411461051b578063987ee15614610523578063a2cd68af14610536578063a89ae4ba1461054957600080fd5b80633ef787d51161020b5780635ab492f4116101c45780635ab492f414610464578063611c584d1461047757806370a082311461048a578063715018a6146104b357806381255cc2146104bb5780638cb3170a146104ce57600080fd5b80633ef787d5146103f05780633f9a61e0146103f9578063443886d71461040c57806349f86f341461041f5780634c69c00f14610449578063555990261461045c57600080fd5b806323b872dd1161025d57806323b872dd146103355780632947dabd14610348578063313ce56714610357578063332d56d71461036657806333ea3dc8146103c057806338767b60146103e857600080fd5b806303833486146102a557806306fdde03146102c0578063095ea7b3146102d557806313226a97146102f857806318160ddd146103185780631c32933714610320575b600080fd5b6102ad600a81565b6040519081526020015b60405180910390f35b6102c8610723565b6040516102b79190613515565b6102e86102e336600461354b565b6107b5565b60405190151581526020016102b7565b61030b610306366004613584565b6107cf565b6040516102b7919061359f565b6002546102ad565b61033361032e3660046135e3565b6109b5565b005b6102e8610343366004613618565b610a72565b6102ad678ac7230489e8000081565b604051601281526020016102b7565b6103ae610374366004613654565b60076020526000908152604090208054600182015460028301546003840154600485015460059095015460ff948516959394929391921686565b6040516102b7969594939291906136b0565b6103d36103ce3660046136e8565b610a96565b6040516102b799989796959493929190613701565b6102ad609681565b6102ad6101f481565b6102c8610407366004613584565b610cf4565b6102c861041a366004613654565b610e66565b61043261042d3660046136e8565b610f9c565b6040516102b79b9a9998979695949392919061377b565b610333610457366004613654565b611201565b6102ad603281565b6102ad6104723660046138a7565b6112aa565b610333610485366004613942565b611588565b6102ad610498366004613654565b6001600160a01b031660009081526020819052604090205490565b610333611645565b6102ad6104c9366004613999565b611659565b6104e16104dc36600461354b565b6117c2565b6040516102b791906139cc565b6005546001600160a01b03165b6040516001600160a01b0390911681526020016102b7565b610333611aae565b6102c8611bf0565b6103ae610531366004613654565b611bff565b610333610544366004613ab5565b611cd3565b6011546104fb906001600160a01b031681565b6102e861056a36600461354b565b6125a6565b600c546102ad565b61058a6105853660046136e8565b6125b4565b604080519687526001600160a01b0390951660208701529385019290925260608401526080830152151560a082015260c0016102b7565b6102e86105cf36600461354b565b61269e565b6102ad600f5481565b6102ad60105481565b6102e86105f43660046136e8565b600a6020526000908152604090205460ff1681565b6102ad610617366004613654565b6001600160a01b03166000908152600d602052604090205490565b6102ad610640366004613ae8565b6001600160a01b03918216600090815260016020908152604080832093909416825291909152205490565b6104326106793660046136e8565b612730565b61058a61068c3660046136e8565b6128a8565b600b546102ad565b6103d36106a73660046136e8565b6128fb565b6103336106ba366004613942565b6129f5565b6103336106cd366004613654565b612af4565b61030b6106e0366004613584565b612b32565b61030b6106f3366004613654565b612bbf565b6102ad61070636600461354b565b600860209081526000928352604080842090915290825290205481565b60606003805461073290613b12565b80601f016020809104026020016040519081016040528092919081815260200182805461075e90613b12565b80156107ab5780601f10610780576101008083540402835291602001916107ab565b820191906000526020600020905b81548152906001019060200180831161078e57829003601f168201915b5050505050905090565b6000336107c3818585612cee565b60019150505b92915050565b60606000600e60008460048111156107e9576107e961366f565b60048111156107fa576107fa61366f565b815260200190815260200160002080548060200260200160405190810160405280929190818152602001828054801561085257602002820191906000526020600020905b81548152602001906001019080831161083e575b505050505090506000805b82518110156108c2576009600084838151811061087c5761087c613b4c565b60209081029190910181015182528101919091526040016000206005015460ff16156108b057816108ac81613b78565b9250505b806108ba81613b78565b91505061085d565b5060008167ffffffffffffffff8111156108de576108de613804565b604051908082528060200260200182016040528015610907578160200160208202803683370190505b5090506000805b84518110156109aa576009600086838151811061092d5761092d613b4c565b60209081029190910181015182528101919091526040016000206005015460ff16156109985784818151811061096557610965613b4c565b602002602001015183838151811061097f5761097f613b4c565b60209081029190910101528161099481613b78565b9250505b806109a281613b78565b91505061090e565b509095945050505050565b6109bd612cfb565b600082815260096020526040812054839103610a175760405162461bcd60e51b8152602060048201526014602482015273145d595cdd08191bd95cc81b9bdd08195e1a5cdd60621b60448201526064015b60405180910390fd5b600083815260096020908152604091829020600501805460ff1916851515908117909155915191825284917ff2b6cca8eca86ac430e8056334e4540da3a2aa8870e6170cf530ab3812e77d5d910160405180910390a2505050565b600033610a80858285612d28565b610a8b858585612da7565b506001949350505050565b600080600080600060606000806000808a118015610ab557506010548a105b610afa5760405162461bcd60e51b8152602060048201526016602482015275125b9d985b1a59081d1c985b9cd858dd1a5bdb88125160521b6044820152606401610a0e565b6000600c610b0960018d613b91565b81548110610b1957610b19613b4c565b6000918252602091829020604080516101208101825260079093029091018054835260018101546001600160a01b0381169484019490945291929083019060ff600160a01b909104166004811115610b7357610b7361366f565b6004811115610b8457610b8461366f565b81526020016002820154815260200160038201548152602001600482018054610bac90613b12565b80601f0160208091040260200160405190810160405280929190818152602001828054610bd890613b12565b8015610c255780601f10610bfa57610100808354040283529160200191610c25565b820191906000526020600020905b815481529060010190602001808311610c0857829003601f168201915b505050918352505060058201546020820152600682015460409091019060ff166004811115610c5657610c5661366f565b6004811115610c6757610c6761366f565b81526020016006820160019054906101000a900460ff166004811115610c8f57610c8f61366f565b6004811115610ca057610ca061366f565b815250509050806000015181602001518260400151836060015184608001518560a001518660c001518760e00151886101000151995099509950995099509950995099509950509193959799909294969850565b60606000826004811115610d0a57610d0a61366f565b03610d3857505060408051808201909152600d81526c115b9d9a5c9bdb9b595b9d185b609a1b602082015290565b6001826004811115610d4c57610d4c61366f565b03610d7e575050604080518082019091526011815270436f6d6d756e697479205365727669636560781b602082015290565b6002826004811115610d9257610d9261366f565b03610dbc57505060408051808201909152600981526822b23ab1b0ba34b7b760b91b602082015290565b6003826004811115610dd057610dd061366f565b03610e0057505060408051808201909152600f81526e2bb0b9ba32902932b23ab1ba34b7b760891b602082015290565b6004826004811115610e1457610e1461366f565b03610e4357505060408051808201909152600e81526d5375737461696e6162696c69747960901b602082015290565b50506040805180820190915260078152662ab735b737bbb760c91b602082015290565b6001600160a01b03811660009081526007602052604090205460609060ff166004816004811115610e9957610e9961366f565b03610ec05750506040805180820190915260048152635472656560e01b6020820152919050565b6003816004811115610ed457610ed461366f565b03610efe5750506040805180820190915260078152665361706c696e6760c81b6020820152919050565b6002816004811115610f1257610f1261366f565b03610f3b57505060408051808201909152600681526514dc1c9bdd5d60d21b6020820152919050565b6001816004811115610f4f57610f4f61366f565b03610f7a575050604080518082019091526008815267536565646c696e6760c01b6020820152919050565b50506040805180820190915260048152634e6f6e6560e01b6020820152919050565b60006060806000806000806000806000806000600960008e81526020019081526020016000206040518061016001604052908160008201548152602001600182018054610fe890613b12565b80601f016020809104026020016040519081016040528092919081815260200182805461101490613b12565b80156110615780601f1061103657610100808354040283529160200191611061565b820191906000526020600020905b81548152906001019060200180831161104457829003601f168201915b5050505050815260200160028201805461107a90613b12565b80601f01602080910402602001604051908101604052809291908181526020018280546110a690613b12565b80156110f35780601f106110c8576101008083540402835291602001916110f3565b820191906000526020600020905b8154815290600101906020018083116110d657829003601f168201915b5050509183525050600382015460208201526004808301546040830152600583015460ff9081161515606084015260068401546080840152600784015460a09093019216908111156111475761114761366f565b60048111156111585761115861366f565b81526020016007820160019054906101000a90046001600160a01b03166001600160a01b03166001600160a01b03168152602001600882015481526020016009820154815250509050806000015181602001518260400151836060015184608001518560a001518660c001518760e001518861010001518961012001518a61014001519b509b509b509b509b509b509b509b509b509b509b505091939597999b90929496989a50565b611209612cfb565b6001600160a01b0381166112585760405162461bcd60e51b8152602060048201526016602482015275496e76616c6964206f7261636c65206164647265737360501b6044820152606401610a0e565b601180546001600160a01b038381166001600160a01b0319831681179093556040519116919082907fd3afd1676752459d3aa8b6f73633fac8efd724610da9c4cd8d8e4fa1631841fb90600090a35050565b6000808851116112f25760405162461bcd60e51b8152602060048201526013602482015272145d595cdd081b985b59481c995c5d5a5c9959606a1b6044820152606401610a0e565b600086116113425760405162461bcd60e51b815260206004820152601760248201527f526577617264206d75737420626520706f7369746976650000000000000000006044820152606401610a0e565b600085116113925760405162461bcd60e51b815260206004820152601d60248201527f496d706163742073636f7265206d75737420626520706f7369746976650000006044820152606401610a0e565b600f8054600091826113a383613b78565b9190505590506040518061016001604052808281526020018a81526020018981526020018881526020018781526020016001151581526020018681526020018560048111156113f4576113f461366f565b81523360208083019190915260408083018790526000606090930183905284835260098252909120825181559082015160018201906114339082613bf2565b50604082015160028201906114489082613bf2565b5060608201516003820155608082015160048083019190915560a083015160058301805491151560ff1992831617905560c0840151600684015560e084015160078401805491939092919091169060019084908111156114aa576114aa61366f565b021790555061010082810151600783018054610100600160a81b0319166001600160a01b03909216909202179055610120820151600882015561014090910151600990910155600e60008560048111156115065761150661366f565b60048111156115175761151761366f565b81526020808201929092526040908101600090812080546001810182559082529290209091018290555181907f081a3e146b56e9690728c0eb05145923b1d36a59d7dc8175ad7133d1aef84f3690611574908c908b908b90613cb2565b60405180910390a298975050505050505050565b6011546001600160a01b031633146115b25760405162461bcd60e51b8152600401610a0e90613cd7565b6001600160a01b03831660009081526007602052604090206005015460ff166115ed5760405162461bcd60e51b8152600401610a0e90613d0e565b6115f78383612e06565b611640836004846000856040516020016116119190613d3b565b60408051601f198184030181529181526001600160a01b038a1660009081526007602052205460ff1680612e40565b505050565b61164d612cfb565b611657600061305e565b565b600080600e60008460048111156116725761167261366f565b60048111156116835761168361366f565b81526020019081526020016000208054806020026020016040519081016040528092919081815260200182805480156116db57602002820191906000526020600020905b8154815260200190600101908083116116c7575b505050505090506000915060005b600b548110156117ba57846001600160a01b0316600b828154811061171057611710613b4c565b60009182526020909120600160069092020101546001600160a01b0316036117a85760005b82518110156117a65782818151811061175057611750613b4c565b6020026020010151600b838154811061176b5761176b613b4c565b90600052602060002090600602016000015403611794578361178c81613b78565b9450506117a6565b8061179e81613b78565b915050611735565b505b806117b281613b78565b9150506116e9565b505092915050565b6001600160a01b0382166000908152600d6020908152604080832080548251818502810185019093528083526060949383018282801561182157602002820191906000526020600020905b81548152602001906001019080831161180d575b50505050509050600081518411611838578361183b565b81515b905060008167ffffffffffffffff81111561185857611858613804565b60405190808252806020026020018201604052801561189157816020015b61187e613469565b8152602001906001900390816118765790505b50905060005b82811015611aa45760008482600187516118b19190613b91565b6118bb9190613b91565b815181106118cb576118cb613b4c565b60200260200101519050600c81815481106118e8576118e8613b4c565b6000918252602091829020604080516101208101825260079093029091018054835260018101546001600160a01b0381169484019490945291929083019060ff600160a01b9091041660048111156119425761194261366f565b60048111156119535761195361366f565b8152602001600282015481526020016003820154815260200160048201805461197b90613b12565b80601f01602080910402602001604051908101604052809291908181526020018280546119a790613b12565b80156119f45780601f106119c9576101008083540402835291602001916119f4565b820191906000526020600020905b8154815290600101906020018083116119d757829003601f168201915b505050918352505060058201546020820152600682015460409091019060ff166004811115611a2557611a2561366f565b6004811115611a3657611a3661366f565b81526020016006820160019054906101000a900460ff166004811115611a5e57611a5e61366f565b6004811115611a6f57611a6f61366f565b81525050838381518110611a8557611a85613b4c565b6020026020010181905250508080611a9c90613b78565b915050611897565b5095945050505050565b3360009081526007602052604090206005015460ff1615611b115760405162461bcd60e51b815260206004820152601760248201527f5573657220616c726561647920726567697374657265640000000000000000006044820152606401610a0e565b6040805160c0810182526000808252602080830182905282840182905260608301829052426080840152600160a08401819052338352600790915292902081518154929391929091839160ff191690836004811115611b7257611b7261366f565b021790555060208281015160018301556040808401516002840155606084015160038401556080840151600484015560a0909301516005909201805460ff191692151592909217909155905142815233917fead8f8569db46abf73ccebcdaef3739e92c4df800b36c5c6382a49a0b1928e66910160405180910390a2565b60606004805461073290613b12565b6001600160a01b038116600090815260076020526040808220815160c081019092528054839283928392839283928392829060ff166004811115611c4557611c4561366f565b6004811115611c5657611c5661366f565b8152602001600182015481526020016002820154815260200160038201548152602001600482015481526020016005820160009054906101000a900460ff1615151515815250509050806000015181602001518260400151836060015184608001518560a001519650965096509650965096505091939550919395565b6011546001600160a01b03163314611cfd5760405162461bcd60e51b8152600401610a0e90613cd7565b600082815260096020526040812054839103611d525760405162461bcd60e51b8152602060048201526014602482015273145d595cdd08191bd95cc81b9bdd08195e1a5cdd60621b6044820152606401610a0e565b600083815260096020526040902060050154839060ff16611dab5760405162461bcd60e51b81526020600482015260136024820152725175657374206973206e6f742061637469766560681b6044820152606401610a0e565b611db36130b0565b6001600160a01b03851660009081526007602052604090206005015460ff16611dee5760405162461bcd60e51b8152600401610a0e90613d0e565b6000838152600a602052604090205460ff1615611e425760405162461bcd60e51b8152602060048201526012602482015271141c9bdbd988185b1c9958591e481d5cd95960721b6044820152606401610a0e565b82611e845760405162461bcd60e51b8152602060048201526012602482015271092dcecc2d8d2c840e0e4dedecc40d0c2e6d60731b6044820152606401610a0e565b6000600960008681526020019081526020016000206040518061016001604052908160008201548152602001600182018054611ebf90613b12565b80601f0160208091040260200160405190810160405280929190818152602001828054611eeb90613b12565b8015611f385780601f10611f0d57610100808354040283529160200191611f38565b820191906000526020600020905b815481529060010190602001808311611f1b57829003601f168201915b50505050508152602001600282018054611f5190613b12565b80601f0160208091040260200160405190810160405280929190818152602001828054611f7d90613b12565b8015611fca5780601f10611f9f57610100808354040283529160200191611fca565b820191906000526020600020905b815481529060010190602001808311611fad57829003601f168201915b5050509183525050600382015460208201526004808301546040830152600583015460ff9081161515606084015260068401546080840152600784015460a090930192169081111561201e5761201e61366f565b600481111561202f5761202f61366f565b815260078201546001600160a01b036101009091048116602080840191909152600880850154604080860191909152600990950154606090940193909352908a1660009081529181528282208983529052205460c0820151919250906120959082613d6b565b4210156120e45760405162461bcd60e51b815260206004820152601a60248201527f517565737420636f6f6c646f776e206e6f7420657870697265640000000000006044820152606401610a0e565b6000858152600a60209081526040808320805460ff191660019081179091556001600160a01b038b16845260079092528220805460808601519282018054929460ff92909216939290919061213a908490613d6b565b9250508190555060018260020160008282546121569190613d6b565b909155505042600383018190556001600160a01b038a811660008181526008602090815260408083208e84528252808320869055805160c0810182528e8152918201938452810194855260608082018d8152908a01805160808401908152600160a08501818152600b8054928301815590965293517f0175b7a638427703f0dbe7bb9bbf987a2551717b34e79f33b5b1008d1fa01db960069095029485015594517f0175b7a638427703f0dbe7bb9bbf987a2551717b34e79f33b5b1008d1fa01dba840180546001600160a01b031916919097161790955594517f0175b7a638427703f0dbe7bb9bbf987a2551717b34e79f33b5b1008d1fa01dbb82015593517f0175b7a638427703f0dbe7bb9bbf987a2551717b34e79f33b5b1008d1fa01dbc85015590517f0175b7a638427703f0dbe7bb9bbf987a2551717b34e79f33b5b1008d1fa01dbd840155517f0175b7a638427703f0dbe7bb9bbf987a2551717b34e79f33b5b1008d1fa01dbe909201805460ff191692151592909217909155516122e1908a90612e06565b61231889600086606001518b88602001516040516020016123029190613d7e565b6040516020818303038152906040528687612e40565b6101008401516001600160a01b03161580159061233a57506000846101200151115b1561244e57612353846101000151856101200151612e06565b6000888152600960208190526040822001805460019290612375908490613d6b565b925050819055506123eb84610100015160028661012001518b88602001516040516020016123a39190613db7565b60408051601f198184030181529181526101008b0180516001600160a01b03908116600090815260076020528381205492519091168152919091205460ff9182169116612e40565b61010084015161012085015160008a815260096020818152604092839020909101548251938452908301528a926001600160a01b0316917f64e1fa22678925294d4231c5729cbb631da293b4d70ab0108bfb6f5a598df019910160405180910390a35b600061245d83600101546130da565b90508160048111156124715761247161366f565b8160048111156124835761248361366f565b1461253d5782548190849060ff191660018360048111156124a6576124a661366f565b0217905550678ac7230489e800006124be8b82612e06565b6124f68b60018360006124d087613125565b6040516020016124e09190613dfc565b6040516020818303038152906040528888612e40565b8a6001600160a01b03167f090858214f50d1ef592490599889d04973d69c13ff6a0639567fbf123649c9fa84844260405161253393929190613e34565b60405180910390a2505b60608086015160408051428152602081018c9052908101919091528a916001600160a01b038d16917f66609b14de95e77d50240c1dffa83760d541dfb8a29f5812afa6575fd66ed9e4910160405180910390a3505050505061259f6001600655565b5050505050565b6000336107c3818585612da7565b600080600080600080600b8054905087106126075760405162461bcd60e51b8152602060048201526013602482015272496e646578206f7574206f6620626f756e647360681b6044820152606401610a0e565b6000600b888154811061261c5761261c613b4c565b60009182526020918290206040805160c081018252600693909302909101805480845260018201546001600160a01b0316948401859052600282015492840183905260038201546060850181905260048301546080860181905260059093015460ff16151560a0909501859052909d949c50919a509098509650945092505050565b6001600160a01b03821660009081526007602052604081206005015460ff166126c9575060006107c9565b60008281526009602052604090206005015460ff166126ea575060006107c9565b6001600160a01b03831660009081526008602090815260408083208584528252808320546009909252909120600601546127248183613d6b565b42101595945050505050565b6009602052600090815260409020805460018201805491929161275290613b12565b80601f016020809104026020016040519081016040528092919081815260200182805461277e90613b12565b80156127cb5780601f106127a0576101008083540402835291602001916127cb565b820191906000526020600020905b8154815290600101906020018083116127ae57829003601f168201915b5050505050908060020180546127e090613b12565b80601f016020809104026020016040519081016040528092919081815260200182805461280c90613b12565b80156128595780601f1061282e57610100808354040283529160200191612859565b820191906000526020600020905b81548152906001019060200180831161283c57829003601f168201915b505050506003830154600484015460058501546006860154600787015460088801546009909801549697949693955060ff928316949193928116926101009091046001600160a01b031691908b565b600b81815481106128b857600080fd5b60009182526020909120600690910201805460018201546002830154600384015460048501546005909501549395506001600160a01b0390921693909260ff1686565b600c818154811061290b57600080fd5b6000918252602090912060079091020180546001820154600283015460038401546004850180549496506001600160a01b03841695600160a01b90940460ff16949293919261295990613b12565b80601f016020809104026020016040519081016040528092919081815260200182805461298590613b12565b80156129d25780601f106129a7576101008083540402835291602001916129d2565b820191906000526020600020905b8154815290600101906020018083116129b557829003601f168201915b50505050600583015460069093015491929160ff80821692506101009091041689565b6011546001600160a01b03163314612a1f5760405162461bcd60e51b8152600401610a0e90613cd7565b6001600160a01b03831660009081526007602052604090206005015460ff16612a5a5760405162461bcd60e51b8152600401610a0e90613d0e565b81612a7a846001600160a01b031660009081526020819052604090205490565b1015612ac85760405162461bcd60e51b815260206004820152601a60248201527f496e73756666696369656e7420746f6b656e2062616c616e63650000000000006044820152606401610a0e565b612ad28383613234565b611640836003612ae185613e5e565b6000856040516020016116119190613e7a565b612afc612cfb565b6001600160a01b038116612b2657604051631e4fbdf760e01b815260006004820152602401610a0e565b612b2f8161305e565b50565b6060600e6000836004811115612b4a57612b4a61366f565b6004811115612b5b57612b5b61366f565b8152602001908152602001600020805480602002602001604051908101604052809291908181526020018280548015612bb357602002820191906000526020600020905b815481526020019060010190808311612b9f575b50505050509050919050565b6001600160a01b0381166000908152600d60209081526040808320805482518185028101850190935280835260609493830182828015612c1e57602002820191906000526020600020905b815481526020019060010190808311612c0a575b505050505090506000815167ffffffffffffffff811115612c4157612c41613804565b604051908082528060200260200182016040528015612c6a578160200160208202803683370190505b50905060005b8251811015612ce657600c838281518110612c8d57612c8d613b4c565b602002602001015181548110612ca557612ca5613b4c565b906000526020600020906007020160000154828281518110612cc957612cc9613b4c565b602090810291909101015280612cde81613b78565b915050612c70565b509392505050565b611640838383600161326a565b6005546001600160a01b031633146116575760405163118cdaa760e01b8152336004820152602401610a0e565b6001600160a01b03838116600090815260016020908152604080832093861683529290522054600019811015612da15781811015612d9257604051637dc7a0d960e11b81526001600160a01b03841660048201526024810182905260448101839052606401610a0e565b612da18484848403600061326a565b50505050565b6001600160a01b038316612dd157604051634b637e8f60e11b815260006004820152602401610a0e565b6001600160a01b038216612dfb5760405163ec442f0560e01b815260006004820152602401610a0e565b61164083838361333f565b6001600160a01b038216612e305760405163ec442f0560e01b815260006004820152602401610a0e565b612e3c6000838361333f565b5050565b6010805460009182612e5183613b78565b919050559050600c6040518061012001604052808381526020018a6001600160a01b03168152602001896004811115612e8c57612e8c61366f565b8152602001888152602001878152602001868152602001428152602001856004811115612ebb57612ebb61366f565b8152602001846004811115612ed257612ed261366f565b9052815460018181018455600093845260209384902083516007909302019182559282015192810180546001600160a01b039094166001600160a01b0319851681178255604084015193949293926001600160a81b03191617600160a01b836004811115612f4257612f4261366f565b0217905550606082015160028201556080820151600382015560a08201516004820190612f6f9082613bf2565b5060c0820151600582015560e082015160068201805460ff19166001836004811115612f9d57612f9d61366f565b0217905550610100828101516006830180549192909161ff00191690836004811115612fcb57612fcb61366f565b021790555050506001600160a01b0388166000908152600d60205260409020612ff5600183613b91565b815460018101835560009283526020909220909101556040516001600160a01b0389169082907fa0b9190e15ac069f48c64dd5c758d70a4d26e37ea2d59723ae5f58c055adee749061304c908b908b904290613eae565b60405180910390a35050505050505050565b600580546001600160a01b038381166001600160a01b0319831681179093556040519116919082907f8be0079c531659141344cd1fd0a4f28419497f9722a3daafe3b4186f6b6457e090600090a35050565b6002600654036130d357604051633ee5aeb560e01b815260040160405180910390fd5b6002600655565b60006101f482106130ed57506004919050565b609682106130fd57506003919050565b6032821061310d57506002919050565b600a821061311d57506001919050565b506000919050565b6060600482600481111561313b5761313b61366f565b036131605750506040805180820190915260048152635472656560e01b602082015290565b60038260048111156131745761317461366f565b0361319c5750506040805180820190915260078152665361706c696e6760c81b602082015290565b60028260048111156131b0576131b061366f565b036131d757505060408051808201909152600681526514dc1c9bdd5d60d21b602082015290565b60018260048111156131eb576131eb61366f565b03613214575050604080518082019091526008815267536565646c696e6760c01b602082015290565b50506040805180820190915260048152634e6f6e6560e01b602082015290565b6001600160a01b03821661325e57604051634b637e8f60e11b815260006004820152602401610a0e565b612e3c8260008361333f565b6001600160a01b0384166132945760405163e602df0560e01b815260006004820152602401610a0e565b6001600160a01b0383166132be57604051634a1406b160e11b815260006004820152602401610a0e565b6001600160a01b0380851660009081526001602090815260408083209387168352929052208290558015612da157826001600160a01b0316846001600160a01b03167f8c5be1e5ebec7d5bd14f71427d1e84f3dd0314c0f7b2291e5b200ac8c7c3b9258460405161333191815260200190565b60405180910390a350505050565b6001600160a01b03831661336a57806002600082825461335f9190613d6b565b909155506133dc9050565b6001600160a01b038316600090815260208190526040902054818110156133bd5760405163391434e360e21b81526001600160a01b03851660048201526024810182905260448101839052606401610a0e565b6001600160a01b03841660009081526020819052604090209082900390555b6001600160a01b0382166133f857600280548290039055613417565b6001600160a01b03821660009081526020819052604090208054820190555b816001600160a01b0316836001600160a01b03167fddf252ad1be2c89b69c2b068fc378daa952ba7f163c4a11628f55a4df523b3ef8360405161345c91815260200190565b60405180910390a3505050565b60408051610120810182526000808252602082018190529091820190815260200160008152602001600081526020016060815260200160008152602001600060048111156134b9576134b961366f565b81526020016000905290565b60005b838110156134e05781810151838201526020016134c8565b50506000910152565b600081518084526135018160208601602086016134c5565b601f01601f19169290920160200192915050565b60208152600061352860208301846134e9565b9392505050565b80356001600160a01b038116811461354657600080fd5b919050565b6000806040838503121561355e57600080fd5b6135678361352f565b946020939093013593505050565b80356005811061354657600080fd5b60006020828403121561359657600080fd5b61352882613575565b6020808252825182820181905260009190848201906040850190845b818110156135d7578351835292840192918401916001016135bb565b50909695505050505050565b600080604083850312156135f657600080fd5b823591506020830135801515811461360d57600080fd5b809150509250929050565b60008060006060848603121561362d57600080fd5b6136368461352f565b92506136446020850161352f565b9150604084013590509250925092565b60006020828403121561366657600080fd5b6135288261352f565b634e487b7160e01b600052602160045260246000fd5b60058110612b2f57634e487b7160e01b600052602160045260246000fd5b6136ac81613685565b9052565b60c081016136bd88613685565b9681526020810195909552604085019390935260608401919091526080830152151560a09091015290565b6000602082840312156136fa57600080fd5b5035919050565b8981526001600160a01b038916602082015260006101206137218a613685565b8960408401528860608401528760808401528060a0840152613745818401886134e9565b9150508460c083015261375784613685565b8360e083015261376683613685565b826101008301529a9950505050505050505050565b60006101608d83528060208401526137958184018e6134e9565b905082810360408401526137a9818d6134e9565b91505089606083015288608083015287151560a08301528660c08301526137cf86613685565b60e08201959095526001600160a01b039390931661010084015261012083019190915261014090910152979650505050505050565b634e487b7160e01b600052604160045260246000fd5b600082601f83011261382b57600080fd5b813567ffffffffffffffff8082111561384657613846613804565b604051601f8301601f19908116603f0116810190828211818310171561386e5761386e613804565b8160405283815286602085880101111561388757600080fd5b836020870160208301376000602085830101528094505050505092915050565b600080600080600080600060e0888a0312156138c257600080fd5b873567ffffffffffffffff808211156138da57600080fd5b6138e68b838c0161381a565b985060208a01359150808211156138fc57600080fd5b506139098a828b0161381a565b96505060408801359450606088013593506080880135925061392d60a08901613575565b915060c0880135905092959891949750929550565b60008060006060848603121561395757600080fd5b6139608461352f565b925060208401359150604084013567ffffffffffffffff81111561398357600080fd5b61398f8682870161381a565b9150509250925092565b600080604083850312156139ac57600080fd5b6139b58361352f565b91506139c360208401613575565b90509250929050565b60006020808301818452808551808352604092508286019150828160051b87010184880160005b83811015613aa757603f19898403018552815180518452878101516001600160a01b0316888501528681015161012090613a2f898701826136a3565b50606082810151908601526080808301519086015260a080830151818701839052613a5c838801826134e9565b9250505060c080830151818701525060e080830151613a7d828801826136a3565b50506101009182015191613a93868201846136a3565b5095880195935050908601906001016139f3565b509098975050505050505050565b600080600060608486031215613aca57600080fd5b613ad38461352f565b95602085013595506040909401359392505050565b60008060408385031215613afb57600080fd5b613b048361352f565b91506139c36020840161352f565b600181811c90821680613b2657607f821691505b602082108103613b4657634e487b7160e01b600052602260045260246000fd5b50919050565b634e487b7160e01b600052603260045260246000fd5b634e487b7160e01b600052601160045260246000fd5b600060018201613b8a57613b8a613b62565b5060010190565b818103818111156107c9576107c9613b62565b601f82111561164057600081815260208120601f850160051c81016020861015613bcb5750805b601f850160051c820191505b81811015613bea57828155600101613bd7565b505050505050565b815167ffffffffffffffff811115613c0c57613c0c613804565b613c2081613c1a8454613b12565b84613ba4565b602080601f831160018114613c555760008415613c3d5750858301515b600019600386901b1c1916600185901b178555613bea565b600085815260208120601f198616915b82811015613c8457888601518255948401946001909101908401613c65565b5085821015613ca25787850151600019600388901b60f8161c191681555b5050505050600190811b01905550565b606081526000613cc560608301866134e9565b60208301949094525060400152919050565b60208082526019908201527f4f6e6c79206f7261636c652063616e2063616c6c207468697300000000000000604082015260600190565b602080825260139082015272155cd95c881b9bdd081c9959da5cdd195c9959606a1b604082015260600190565b6702932b33ab7321d160c51b815260008251613d5e8160088501602087016134c5565b9190910160080192915050565b808201808211156107c9576107c9613b62565b70021b7b6b83632ba32b21038bab2b9ba1d1607d1b815260008251613daa8160118501602087016134c5565b9190910160110192915050565b7f43726561746f722072657761726420666f722071756573743a20000000000000815260008251613def81601a8501602087016134c5565b91909101601a0192915050565b6f02632bb32b6103ab8103137b73ab99d160851b815260008251613e278160108501602087016134c5565b9190910160100192915050565b60608101613e4185613685565b848252613e4d84613685565b602082019390935260400152919050565b6000600160ff1b8201613e7357613e73613b62565b5060000390565b6b02932b232b2b6b2b21030ba160a51b815260008251613ea181600c8501602087016134c5565b91909101600c0192915050565b60608101613ebb85613685565b93815260208101929092526040909101529056fea2646970667358221220bb9e9e3f92add99a15da81ebacbba24ceff2de0d71bc3e8602d9215cc3ae3d6d64736f6c63430008140033",
  "linkReferences": {},
  "deployedLinkReferences": {}
}