{
  "_format": "hh-sol-artifact-1",
  "contractName": "ImpactQuest",
  "sourceName": "contracts/ImpactQuest.sol",
  "abi": [
    {
      "inputs": [
        {
          "internalType": "address",
          "name": "_oracleAddress",
          "type": "address"
        }
      ],
      "stateMutability": "nonpayable",
      "type": "constructor"
    },
    {
      "inputs": [
        {
          "internalType": "address",
          "name": "spender",
          "type": "address"
        },
        {
          "internalType": "uint256",
          "name": "allowance",
          "type": "uint256"
        },
        {
          "internalType": "uint256",
          "name": "needed",
          "type": "uint256"
        }
      ],
      "name": "ERC20InsufficientAllowance",
      "type": "error"
    },
    {
      "inputs": [
        {
          "internalType": "address",
          "name": "sender",
          "type": "address"
        },
        {
          "internalType": "uint256",
          "name": "balance",
          "type": "uint256"
        },
        {
          "internalType": "uint256",
          "name": "needed",
          "type": "uint256"
        }
      ],
      "name": "ERC20InsufficientBalance",
      "type": "error"
    },
    {
      "inputs": [
        {
          "internalType": "address",
          "name": "approver",
          "type": "address"
        }
      ],
      "name": "ERC20InvalidApprover",
      "type": "error"
    },
    {
      "inputs": [
        {
          "internalType": "address",
          "name": "receiver",
          "type": "address"
        }
      ],
      "name": "ERC20InvalidReceiver",
      "type": "error"
    },
    {
      "inputs": [
        {
          "internalType": "address",
          "name": "sender",
          "type": "address"
        }
      ],
      "name": "ERC20InvalidSender",
      "type": "error"
    },
    {
      "inputs": [
        {
          "internalType": "address",
          "name": "spender",
          "type": "address"
        }
      ],
      "name": "ERC20InvalidSpender",
      "type": "error"
    },
    {
      "inputs": [
        {
          "internalType": "address",
          "name": "owner",
          "type": "address"
        }
      ],
      "name": "OwnableInvalidOwner",
      "type": "error"
    },
    {
      "inputs": [
        {
          "internalType": "address",
          "name": "account",
          "type": "address"
        }
      ],
      "name": "OwnableUnauthorizedAccount",
      "type": "error"
    },
    {
      "inputs": [],
      "name": "ReentrancyGuardReentrantCall",
      "type": "error"
    },
    {
      "anonymous": false,
      "inputs": [
        {
          "indexed": true,
          "internalType": "address",
          "name": "owner",
          "type": "address"
        },
        {
          "indexed": true,
          "internalType": "address",
          "name": "spender",
          "type": "address"
        },
        {
          "indexed": false,
          "internalType": "uint256",
          "name": "value",
          "type": "uint256"
        }
      ],
      "name": "Approval",
      "type": "event"
    },
    {
      "anonymous": false,
      "inputs": [
        {
          "indexed": true,
          "internalType": "address",
          "name": "user",
          "type": "address"
        },
        {
          "indexed": false,
          "internalType": "enum ImpactQuest.UserLevel",
          "name": "oldLevel",
          "type": "uint8"
        },
        {
          "indexed": false,
          "internalType": "enum ImpactQuest.UserLevel",
          "name": "newLevel",
          "type": "uint8"
        },
        {
          "indexed": false,
          "internalType": "uint256",
          "name": "timestamp",
          "type": "uint256"
        }
      ],
      "name": "LevelUp",
      "type": "event"
    },
    {
      "anonymous": false,
      "inputs": [
        {
          "indexed": true,
          "internalType": "address",
          "name": "oldOracle",
          "type": "address"
        },
        {
          "indexed": true,
          "internalType": "address",
          "name": "newOracle",
          "type": "address"
        }
      ],
      "name": "OracleAddressUpdated",
      "type": "event"
    },
    {
      "anonymous": false,
      "inputs": [
        {
          "indexed": true,
          "internalType": "address",
          "name": "previousOwner",
          "type": "address"
        },
        {
          "indexed": true,
          "internalType": "address",
          "name": "newOwner",
          "type": "address"
        }
      ],
      "name": "OwnershipTransferred",
      "type": "event"
    },
    {
      "anonymous": false,
      "inputs": [
        {
          "indexed": true,
          "internalType": "address",
          "name": "user",
          "type": "address"
        },
        {
          "indexed": true,
          "internalType": "uint256",
          "name": "questId",
          "type": "uint256"
        },
        {
          "indexed": false,
          "internalType": "uint256",
          "name": "timestamp",
          "type": "uint256"
        },
        {
          "indexed": false,
          "internalType": "bytes32",
          "name": "proofHash",
          "type": "bytes32"
        },
        {
          "indexed": false,
          "internalType": "uint256",
          "name": "rewardAmount",
          "type": "uint256"
        }
      ],
      "name": "QuestCompleted",
      "type": "event"
    },
    {
      "anonymous": false,
      "inputs": [
        {
          "indexed": true,
          "internalType": "uint256",
          "name": "questId",
          "type": "uint256"
        },
        {
          "indexed": false,
          "internalType": "string",
          "name": "name",
          "type": "string"
        },
        {
          "indexed": false,
          "internalType": "uint256",
          "name": "rewardAmount",
          "type": "uint256"
        },
        {
          "indexed": false,
          "internalType": "uint256",
          "name": "impactScore",
          "type": "uint256"
        }
      ],
      "name": "QuestCreated",
      "type": "event"
    },
    {
      "anonymous": false,
      "inputs": [
        {
          "indexed": true,
          "internalType": "uint256",
          "name": "questId",
          "type": "uint256"
        },
        {
          "indexed": false,
          "internalType": "bool",
          "name": "isActive",
          "type": "bool"
        }
      ],
      "name": "QuestUpdated",
      "type": "event"
    },
    {
      "anonymous": false,
      "inputs": [
        {
          "indexed": true,
          "internalType": "address",
          "name": "from",
          "type": "address"
        },
        {
          "indexed": true,
          "internalType": "address",
          "name": "to",
          "type": "address"
        },
        {
          "indexed": false,
          "internalType": "uint256",
          "name": "value",
          "type": "uint256"
        }
      ],
      "name": "Transfer",
      "type": "event"
    },
    {
      "anonymous": false,
      "inputs": [
        {
          "indexed": true,
          "internalType": "address",
          "name": "user",
          "type": "address"
        },
        {
          "indexed": false,
          "internalType": "uint256",
          "name": "timestamp",
          "type": "uint256"
        }
      ],
      "name": "UserJoined",
      "type": "event"
    },
    {
      "inputs": [],
      "name": "SAPLING_THRESHOLD",
      "outputs": [
        {
          "internalType": "uint256",
          "name": "",
          "type": "uint256"
        }
      ],
      "stateMutability": "view",
      "type": "function"
    },
    {
      "inputs": [],
      "name": "SEEDLING_THRESHOLD",
      "outputs": [
        {
          "internalType": "uint256",
          "name": "",
          "type": "uint256"
        }
      ],
      "stateMutability": "view",
      "type": "function"
    },
    {
      "inputs": [],
      "name": "SPROUT_THRESHOLD",
      "outputs": [
        {
          "internalType": "uint256",
          "name": "",
          "type": "uint256"
        }
      ],
      "stateMutability": "view",
      "type": "function"
    },
    {
      "inputs": [],
      "name": "TOKENS_PER_QUEST",
      "outputs": [
        {
          "internalType": "uint256",
          "name": "",
          "type": "uint256"
        }
      ],
      "stateMutability": "view",
      "type": "function"
    },
    {
      "inputs": [],
      "name": "TREE_THRESHOLD",
      "outputs": [
        {
          "internalType": "uint256",
          "name": "",
          "type": "uint256"
        }
      ],
      "stateMutability": "view",
      "type": "function"
    },
    {
      "inputs": [
        {
          "internalType": "address",
          "name": "owner",
          "type": "address"
        },
        {
          "internalType": "address",
          "name": "spender",
          "type": "address"
        }
      ],
      "name": "allowance",
      "outputs": [
        {
          "internalType": "uint256",
          "name": "",
          "type": "uint256"
        }
      ],
      "stateMutability": "view",
      "type": "function"
    },
    {
      "inputs": [
        {
          "internalType": "address",
          "name": "spender",
          "type": "address"
        },
        {
          "internalType": "uint256",
          "name": "value",
          "type": "uint256"
        }
      ],
      "name": "approve",
      "outputs": [
        {
          "internalType": "bool",
          "name": "",
          "type": "bool"
        }
      ],
      "stateMutability": "nonpayable",
      "type": "function"
    },
    {
      "inputs": [
        {
          "internalType": "address",
          "name": "account",
          "type": "address"
        }
      ],
      "name": "balanceOf",
      "outputs": [
        {
          "internalType": "uint256",
          "name": "",
          "type": "uint256"
        }
      ],
      "stateMutability": "view",
      "type": "function"
    },
    {
      "inputs": [
        {
          "internalType": "address",
          "name": "user",
          "type": "address"
        },
        {
          "internalType": "uint256",
          "name": "questId",
          "type": "uint256"
        }
      ],
      "name": "canCompleteQuest",
      "outputs": [
        {
          "internalType": "bool",
          "name": "",
          "type": "bool"
        }
      ],
      "stateMutability": "view",
      "type": "function"
    },
    {
      "inputs": [
        {
          "internalType": "address",
          "name": "user",
          "type": "address"
        },
        {
          "internalType": "uint256",
          "name": "questId",
          "type": "uint256"
        },
        {
          "internalType": "bytes32",
          "name": "proofHash",
          "type": "bytes32"
        }
      ],
      "name": "completeQuest",
      "outputs": [],
      "stateMutability": "nonpayable",
      "type": "function"
    },
    {
      "inputs": [
        {
          "internalType": "uint256",
          "name": "",
          "type": "uint256"
        }
      ],
      "name": "completionHistory",
      "outputs": [
        {
          "internalType": "uint256",
          "name": "questId",
          "type": "uint256"
        },
        {
          "internalType": "address",
          "name": "user",
          "type": "address"
        },
        {
          "internalType": "uint256",
          "name": "timestamp",
          "type": "uint256"
        },
        {
          "internalType": "bytes32",
          "name": "proofHash",
          "type": "bytes32"
        },
        {
          "internalType": "uint256",
          "name": "rewardAmount",
          "type": "uint256"
        },
        {
          "internalType": "bool",
          "name": "verified",
          "type": "bool"
        }
      ],
      "stateMutability": "view",
      "type": "function"
    },
    {
      "inputs": [
        {
          "internalType": "string",
          "name": "name",
          "type": "string"
        },
        {
          "internalType": "string",
          "name": "description",
          "type": "string"
        },
        {
          "internalType": "uint256",
          "name": "rewardAmount",
          "type": "uint256"
        },
        {
          "internalType": "uint256",
          "name": "impactScore",
          "type": "uint256"
        },
        {
          "internalType": "uint256",
          "name": "cooldownPeriod",
          "type": "uint256"
        },
        {
          "internalType": "enum ImpactQuest.QuestCategory",
          "name": "category",
          "type": "uint8"
        }
      ],
      "name": "createQuest",
      "outputs": [
        {
          "internalType": "uint256",
          "name": "",
          "type": "uint256"
        }
      ],
      "stateMutability": "nonpayable",
      "type": "function"
    },
    {
      "inputs": [],
      "name": "decimals",
      "outputs": [
        {
          "internalType": "uint8",
          "name": "",
          "type": "uint8"
        }
      ],
      "stateMutability": "view",
      "type": "function"
    },
    {
      "inputs": [
        {
          "internalType": "enum ImpactQuest.QuestCategory",
          "name": "category",
          "type": "uint8"
        }
      ],
      "name": "getActiveQuestsByCategory",
      "outputs": [
        {
          "internalType": "uint256[]",
          "name": "",
          "type": "uint256[]"
        }
      ],
      "stateMutability": "view",
      "type": "function"
    },
    {
      "inputs": [
        {
          "internalType": "enum ImpactQuest.QuestCategory",
          "name": "category",
          "type": "uint8"
        }
      ],
      "name": "getCategoryName",
      "outputs": [
        {
          "internalType": "string",
          "name": "",
          "type": "string"
        }
      ],
      "stateMutability": "pure",
      "type": "function"
    },
    {
      "inputs": [
        {
          "internalType": "uint256",
          "name": "index",
          "type": "uint256"
        }
      ],
      "name": "getCompletion",
      "outputs": [
        {
          "internalType": "uint256",
          "name": "questId",
          "type": "uint256"
        },
        {
          "internalType": "address",
          "name": "user",
          "type": "address"
        },
        {
          "internalType": "uint256",
          "name": "timestamp",
          "type": "uint256"
        },
        {
          "internalType": "bytes32",
          "name": "proofHash",
          "type": "bytes32"
        },
        {
          "internalType": "uint256",
          "name": "rewardAmount",
          "type": "uint256"
        },
        {
          "internalType": "bool",
          "name": "verified",
          "type": "bool"
        }
      ],
      "stateMutability": "view",
      "type": "function"
    },
    {
      "inputs": [
        {
          "internalType": "uint256",
          "name": "questId",
          "type": "uint256"
        }
      ],
      "name": "getQuest",
      "outputs": [
        {
          "internalType": "uint256",
          "name": "id",
          "type": "uint256"
        },
        {
          "internalType": "string",
          "name": "name",
          "type": "string"
        },
        {
          "internalType": "string",
          "name": "description",
          "type": "string"
        },
        {
          "internalType": "uint256",
          "name": "rewardAmount",
          "type": "uint256"
        },
        {
          "internalType": "uint256",
          "name": "impactScore",
          "type": "uint256"
        },
        {
          "internalType": "bool",
          "name": "isActive",
          "type": "bool"
        },
        {
          "internalType": "uint256",
          "name": "cooldownPeriod",
          "type": "uint256"
        },
        {
          "internalType": "enum ImpactQuest.QuestCategory",
          "name": "category",
          "type": "uint8"
        }
      ],
      "stateMutability": "view",
      "type": "function"
    },
    {
      "inputs": [
        {
          "internalType": "enum ImpactQuest.QuestCategory",
          "name": "category",
          "type": "uint8"
        }
      ],
      "name": "getQuestsByCategory",
      "outputs": [
        {
          "internalType": "uint256[]",
          "name": "",
          "type": "uint256[]"
        }
      ],
      "stateMutability": "view",
      "type": "function"
    },
    {
      "inputs": [],
      "name": "getTotalCompletions",
      "outputs": [
        {
          "internalType": "uint256",
          "name": "",
          "type": "uint256"
        }
      ],
      "stateMutability": "view",
      "type": "function"
    },
    {
      "inputs": [
        {
          "internalType": "address",
          "name": "user",
          "type": "address"
        }
      ],
      "name": "getUserLevelName",
      "outputs": [
        {
          "internalType": "string",
          "name": "",
          "type": "string"
        }
      ],
      "stateMutability": "view",
      "type": "function"
    },
    {
      "inputs": [
        {
          "internalType": "address",
          "name": "user",
          "type": "address"
        }
      ],
      "name": "getUserProfile",
      "outputs": [
        {
          "internalType": "enum ImpactQuest.UserLevel",
          "name": "level",
          "type": "uint8"
        },
        {
          "internalType": "uint256",
          "name": "totalImpactScore",
          "type": "uint256"
        },
        {
          "internalType": "uint256",
          "name": "questsCompleted",
          "type": "uint256"
        },
        {
          "internalType": "uint256",
          "name": "lastQuestTimestamp",
          "type": "uint256"
        },
        {
          "internalType": "uint256",
          "name": "joinedTimestamp",
          "type": "uint256"
        },
        {
          "internalType": "bool",
          "name": "isActive",
          "type": "bool"
        }
      ],
      "stateMutability": "view",
      "type": "function"
    },
    {
      "inputs": [
        {
          "internalType": "address",
          "name": "user",
          "type": "address"
        },
        {
          "internalType": "enum ImpactQuest.QuestCategory",
          "name": "category",
          "type": "uint8"
        }
      ],
      "name": "getUserQuestsByCategory",
      "outputs": [
        {
          "internalType": "uint256",
          "name": "count",
          "type": "uint256"
        }
      ],
      "stateMutability": "view",
      "type": "function"
    },
    {
      "inputs": [],
      "name": "joinImpactQuest",
      "outputs": [],
      "stateMutability": "nonpayable",
      "type": "function"
    },
    {
      "inputs": [
        {
          "internalType": "address",
          "name": "",
          "type": "address"
        },
        {
          "internalType": "uint256",
          "name": "",
          "type": "uint256"
        }
      ],
      "name": "lastQuestCompletionTime",
      "outputs": [
        {
          "internalType": "uint256",
          "name": "",
          "type": "uint256"
        }
      ],
      "stateMutability": "view",
      "type": "function"
    },
    {
      "inputs": [],
      "name": "name",
      "outputs": [
        {
          "internalType": "string",
          "name": "",
          "type": "string"
        }
      ],
      "stateMutability": "view",
      "type": "function"
    },
    {
      "inputs": [],
      "name": "nextQuestId",
      "outputs": [
        {
          "internalType": "uint256",
          "name": "",
          "type": "uint256"
        }
      ],
      "stateMutability": "view",
      "type": "function"
    },
    {
      "inputs": [],
      "name": "oracleAddress",
      "outputs": [
        {
          "internalType": "address",
          "name": "",
          "type": "address"
        }
      ],
      "stateMutability": "view",
      "type": "function"
    },
    {
      "inputs": [],
      "name": "owner",
      "outputs": [
        {
          "internalType": "address",
          "name": "",
          "type": "address"
        }
      ],
      "stateMutability": "view",
      "type": "function"
    },
    {
      "inputs": [
        {
          "internalType": "uint256",
          "name": "",
          "type": "uint256"
        }
      ],
      "name": "quests",
      "outputs": [
        {
          "internalType": "uint256",
          "name": "id",
          "type": "uint256"
        },
        {
          "internalType": "string",
          "name": "name",
          "type": "string"
        },
        {
          "internalType": "string",
          "name": "description",
          "type": "string"
        },
        {
          "internalType": "uint256",
          "name": "rewardAmount",
          "type": "uint256"
        },
        {
          "internalType": "uint256",
          "name": "impactScore",
          "type": "uint256"
        },
        {
          "internalType": "bool",
          "name": "isActive",
          "type": "bool"
        },
        {
          "internalType": "uint256",
          "name": "cooldownPeriod",
          "type": "uint256"
        },
        {
          "internalType": "enum ImpactQuest.QuestCategory",
          "name": "category",
          "type": "uint8"
        }
      ],
      "stateMutability": "view",
      "type": "function"
    },
    {
      "inputs": [],
      "name": "renounceOwnership",
      "outputs": [],
      "stateMutability": "nonpayable",
      "type": "function"
    },
    {
      "inputs": [
        {
          "internalType": "address",
          "name": "newOracle",
          "type": "address"
        }
      ],
      "name": "setOracleAddress",
      "outputs": [],
      "stateMutability": "nonpayable",
      "type": "function"
    },
    {
      "inputs": [
        {
          "internalType": "uint256",
          "name": "questId",
          "type": "uint256"
        },
        {
          "internalType": "bool",
          "name": "isActive",
          "type": "bool"
        }
      ],
      "name": "setQuestActive",
      "outputs": [],
      "stateMutability": "nonpayable",
      "type": "function"
    },
    {
      "inputs": [],
      "name": "symbol",
      "outputs": [
        {
          "internalType": "string",
          "name": "",
          "type": "string"
        }
      ],
      "stateMutability": "view",
      "type": "function"
    },
    {
      "inputs": [],
      "name": "totalSupply",
      "outputs": [
        {
          "internalType": "uint256",
          "name": "",
          "type": "uint256"
        }
      ],
      "stateMutability": "view",
      "type": "function"
    },
    {
      "inputs": [
        {
          "internalType": "address",
          "name": "to",
          "type": "address"
        },
        {
          "internalType": "uint256",
          "name": "value",
          "type": "uint256"
        }
      ],
      "name": "transfer",
      "outputs": [
        {
          "internalType": "bool",
          "name": "",
          "type": "bool"
        }
      ],
      "stateMutability": "nonpayable",
      "type": "function"
    },
    {
      "inputs": [
        {
          "internalType": "address",
          "name": "from",
          "type": "address"
        },
        {
          "internalType": "address",
          "name": "to",
          "type": "address"
        },
        {
          "internalType": "uint256",
          "name": "value",
          "type": "uint256"
        }
      ],
      "name": "transferFrom",
      "outputs": [
        {
          "internalType": "bool",
          "name": "",
          "type": "bool"
        }
      ],
      "stateMutability": "nonpayable",
      "type": "function"
    },
    {
      "inputs": [
        {
          "internalType": "address",
          "name": "newOwner",
          "type": "address"
        }
      ],
      "name": "transferOwnership",
      "outputs": [],
      "stateMutability": "nonpayable",
      "type": "function"
    },
    {
      "inputs": [
        {
          "internalType": "bytes32",
          "name": "",
          "type": "bytes32"
        }
      ],
      "name": "usedProofHashes",
      "outputs": [
        {
          "internalType": "bool",
          "name": "",
          "type": "bool"
        }
      ],
      "stateMutability": "view",
      "type": "function"
    },
    {
      "inputs": [
        {
          "internalType": "address",
          "name": "",
          "type": "address"
        }
      ],
      "name": "userProfiles",
      "outputs": [
        {
          "internalType": "enum ImpactQuest.UserLevel",
          "name": "level",
          "type": "uint8"
        },
        {
          "internalType": "uint256",
          "name": "totalImpactScore",
          "type": "uint256"
        },
        {
          "internalType": "uint256",
          "name": "questsCompleted",
          "type": "uint256"
        },
        {
          "internalType": "uint256",
          "name": "lastQuestTimestamp",
          "type": "uint256"
        },
        {
          "internalType": "uint256",
          "name": "joinedTimestamp",
          "type": "uint256"
        },
        {
          "internalType": "bool",
          "name": "isActive",
          "type": "bool"
        }
      ],
      "stateMutability": "view",
      "type": "function"
    }
  ],
  "bytecode": "0x60806040526001600d553480156200001657600080fd5b5060405162002e2538038062002e258339810160408190526200003991620001b4565b336040518060400160405280601181526020017024b6b830b1ba28bab2b9ba102a37b5b2b760791b815250604051806040016040528060038152602001620494d560ec1b81525081600390816200009191906200028b565b506004620000a082826200028b565b5050506001600160a01b038116620000d357604051631e4fbdf760e01b8152600060048201526024015b60405180910390fd5b620000de8162000162565b5060016006556001600160a01b0381166200013c5760405162461bcd60e51b815260206004820152601660248201527f496e76616c6964206f7261636c652061646472657373000000000000000000006044820152606401620000ca565b600e80546001600160a01b0319166001600160a01b039290921691909117905562000357565b600580546001600160a01b038381166001600160a01b0319831681179093556040519116919082907f8be0079c531659141344cd1fd0a4f28419497f9722a3daafe3b4186f6b6457e090600090a35050565b600060208284031215620001c757600080fd5b81516001600160a01b0381168114620001df57600080fd5b9392505050565b634e487b7160e01b600052604160045260246000fd5b600181811c908216806200021157607f821691505b6020821081036200023257634e487b7160e01b600052602260045260246000fd5b50919050565b601f8211156200028657600081815260208120601f850160051c81016020861015620002615750805b601f850160051c820191505b8181101562000282578281556001016200026d565b5050505b505050565b81516001600160401b03811115620002a757620002a7620001e6565b620002bf81620002b88454620001fc565b8462000238565b602080601f831160018114620002f75760008415620002de5750858301515b600019600386901b1c1916600185901b17855562000282565b600085815260208120601f198616915b82811015620003285788860151825594840194600190910190840162000307565b5085821015620003475787850151600019600388901b60f8161c191681555b5050505050600190811b01905550565b612abe80620003676000396000f3fe608060405234801561001057600080fd5b506004361061023d5760003560e01c806381255cc21161013b578063d2a1a10a116100b8578063e24785781161007c578063e247857814610583578063e4815c4814610596578063f2fde38b1461059e578063f864715d146105b1578063fd47465c146105c457600080fd5b8063d2a1a10a146104f8578063d638c9831461050b578063d87318b214610514578063dd62ed3e14610537578063e085f9801461057057600080fd5b8063a2cd68af116100ff578063a2cd68af14610462578063a89ae4ba14610475578063a9059cbb14610488578063bb39f56f1461049b578063c871c167146104e557600080fd5b806381255cc2146104075780638da5cb5b1461041a5780639047a9691461043f57806395d89b4114610447578063987ee1561461044f57600080fd5b8063332d56d7116101c957806349f86f341161018d57806349f86f34146103945780634c69c00f146103bb57806355599026146103ce57806370a08231146103d6578063715018a6146103ff57600080fd5b8063332d56d71461030357806338767b601461035d5780633ef787d5146103655780633f9a61e01461036e578063443886d71461038157600080fd5b806318160ddd1161021057806318160ddd146102b55780631c329337146102bd57806323b872dd146102d25780632947dabd146102e5578063313ce567146102f457600080fd5b8063038334861461024257806306fdde031461025d578063095ea7b31461027257806313226a9714610295575b600080fd5b61024a600a81565b6040519081526020015b60405180910390f35b6102656105ef565b6040516102549190612490565b6102856102803660046124c6565b610681565b6040519015158152602001610254565b6102a86102a33660046124ff565b61069b565b604051610254919061251a565b60025461024a565b6102d06102cb36600461255e565b610881565b005b6102856102e0366004612593565b61093e565b61024a678ac7230489e8000081565b60405160128152602001610254565b61034b6103113660046125cf565b60076020526000908152604090208054600182015460028301546003840154600485015460059095015460ff948516959394929391921686565b6040516102549695949392919061261e565b61024a609681565b61024a6101f481565b61026561037c3660046124ff565b610962565b61026561038f3660046125cf565b610ad4565b6103a76103a2366004612656565b610c0a565b60405161025498979695949392919061266f565b6102d06103c93660046125cf565b610e0b565b61024a603281565b61024a6103e43660046125cf565b6001600160a01b031660009081526020819052604090205490565b6102d0610eb4565b61024a6104153660046126d6565b610ec8565b6005546001600160a01b03165b6040516001600160a01b039091168152602001610254565b6102d0611031565b610265611173565b61034b61045d3660046125cf565b611182565b6102d0610470366004612709565b611256565b600e54610427906001600160a01b031681565b6102856104963660046124c6565b61199a565b6104ae6104a9366004612656565b6119a8565b604080519687526001600160a01b0390951660208701529385019290925260608401526080830152151560a082015260c001610254565b61024a6104f33660046127df565b611a92565b6102856105063660046124c6565b611d25565b61024a600d5481565b610285610522366004612656565b600a6020526000908152604090205460ff1681565b61024a61054536600461286f565b6001600160a01b03918216600090815260016020908152604080832093909416825291909152205490565b6103a761057e366004612656565b611db7565b6104ae610591366004612656565b611f0f565b600b5461024a565b6102d06105ac3660046125cf565b611f62565b6102a86105bf3660046124ff565b611fa0565b61024a6105d23660046124c6565b600860209081526000928352604080842090915290825290205481565b6060600380546105fe90612899565b80601f016020809104026020016040519081016040528092919081815260200182805461062a90612899565b80156106775780601f1061064c57610100808354040283529160200191610677565b820191906000526020600020905b81548152906001019060200180831161065a57829003601f168201915b5050505050905090565b60003361068f81858561202d565b60019150505b92915050565b60606000600c60008460048111156106b5576106b56125ea565b60048111156106c6576106c66125ea565b815260200190815260200160002080548060200260200160405190810160405280929190818152602001828054801561071e57602002820191906000526020600020905b81548152602001906001019080831161070a575b505050505090506000805b825181101561078e5760096000848381518110610748576107486128d3565b60209081029190910181015182528101919091526040016000206005015460ff161561077c5781610778816128ff565b9250505b80610786816128ff565b915050610729565b5060008167ffffffffffffffff8111156107aa576107aa61273c565b6040519080825280602002602001820160405280156107d3578160200160208202803683370190505b5090506000805b845181101561087657600960008683815181106107f9576107f96128d3565b60209081029190910181015182528101919091526040016000206005015460ff161561086457848181518110610831576108316128d3565b602002602001015183838151811061084b5761084b6128d3565b602090810291909101015281610860816128ff565b9250505b8061086e816128ff565b9150506107da565b509095945050505050565b61088961203f565b6000828152600960205260408120548391036108e35760405162461bcd60e51b8152602060048201526014602482015273145d595cdd08191bd95cc81b9bdd08195e1a5cdd60621b60448201526064015b60405180910390fd5b600083815260096020908152604091829020600501805460ff1916851515908117909155915191825284917ff2b6cca8eca86ac430e8056334e4540da3a2aa8870e6170cf530ab3812e77d5d910160405180910390a2505050565b60003361094c85828561206c565b6109578585856120eb565b506001949350505050565b60606000826004811115610978576109786125ea565b036109a657505060408051808201909152600d81526c115b9d9a5c9bdb9b595b9d185b609a1b602082015290565b60018260048111156109ba576109ba6125ea565b036109ec575050604080518082019091526011815270436f6d6d756e697479205365727669636560781b602082015290565b6002826004811115610a0057610a006125ea565b03610a2a57505060408051808201909152600981526822b23ab1b0ba34b7b760b91b602082015290565b6003826004811115610a3e57610a3e6125ea565b03610a6e57505060408051808201909152600f81526e2bb0b9ba32902932b23ab1ba34b7b760891b602082015290565b6004826004811115610a8257610a826125ea565b03610ab157505060408051808201909152600e81526d5375737461696e6162696c69747960901b602082015290565b50506040805180820190915260078152662ab735b737bbb760c91b602082015290565b6001600160a01b03811660009081526007602052604090205460609060ff166004816004811115610b0757610b076125ea565b03610b2e5750506040805180820190915260048152635472656560e01b6020820152919050565b6003816004811115610b4257610b426125ea565b03610b6c5750506040805180820190915260078152665361706c696e6760c81b6020820152919050565b6002816004811115610b8057610b806125ea565b03610ba957505060408051808201909152600681526514dc1c9bdd5d60d21b6020820152919050565b6001816004811115610bbd57610bbd6125ea565b03610be8575050604080518082019091526008815267536565646c696e6760c01b6020820152919050565b50506040805180820190915260048152634e6f6e6560e01b6020820152919050565b6000606080600080600080600080600960008b81526020019081526020016000206040518061010001604052908160008201548152602001600182018054610c5190612899565b80601f0160208091040260200160405190810160405280929190818152602001828054610c7d90612899565b8015610cca5780601f10610c9f57610100808354040283529160200191610cca565b820191906000526020600020905b815481529060010190602001808311610cad57829003601f168201915b50505050508152602001600282018054610ce390612899565b80601f0160208091040260200160405190810160405280929190818152602001828054610d0f90612899565b8015610d5c5780601f10610d3157610100808354040283529160200191610d5c565b820191906000526020600020905b815481529060010190602001808311610d3f57829003601f168201915b5050509183525050600382015460208201526004808301546040830152600583015460ff9081161515606084015260068401546080840152600784015460a0909301921690811115610db057610db06125ea565b6004811115610dc157610dc16125ea565b815250509050806000015181602001518260400151836060015184608001518560a001518660c001518760e001519850985098509850985098509850985050919395975091939597565b610e1361203f565b6001600160a01b038116610e625760405162461bcd60e51b8152602060048201526016602482015275496e76616c6964206f7261636c65206164647265737360501b60448201526064016108da565b600e80546001600160a01b038381166001600160a01b0319831681179093556040519116919082907fd3afd1676752459d3aa8b6f73633fac8efd724610da9c4cd8d8e4fa1631841fb90600090a35050565b610ebc61203f565b610ec6600061214a565b565b600080600c6000846004811115610ee157610ee16125ea565b6004811115610ef257610ef26125ea565b8152602001908152602001600020805480602002602001604051908101604052809291908181526020018280548015610f4a57602002820191906000526020600020905b815481526020019060010190808311610f36575b505050505090506000915060005b600b5481101561102957846001600160a01b0316600b8281548110610f7f57610f7f6128d3565b60009182526020909120600160069092020101546001600160a01b0316036110175760005b825181101561101557828181518110610fbf57610fbf6128d3565b6020026020010151600b8381548110610fda57610fda6128d3565b906000526020600020906006020160000154036110035783610ffb816128ff565b945050611015565b8061100d816128ff565b915050610fa4565b505b80611021816128ff565b915050610f58565b505092915050565b3360009081526007602052604090206005015460ff16156110945760405162461bcd60e51b815260206004820152601760248201527f5573657220616c7265616479207265676973746572656400000000000000000060448201526064016108da565b6040805160c0810182526000808252602080830182905282840182905260608301829052426080840152600160a08401819052338352600790915292902081518154929391929091839160ff1916908360048111156110f5576110f56125ea565b021790555060208281015160018301556040808401516002840155606084015160038401556080840151600484015560a0909301516005909201805460ff191692151592909217909155905142815233917fead8f8569db46abf73ccebcdaef3739e92c4df800b36c5c6382a49a0b1928e66910160405180910390a2565b6060600480546105fe90612899565b6001600160a01b038116600090815260076020526040808220815160c081019092528054839283928392839283928392829060ff1660048111156111c8576111c86125ea565b60048111156111d9576111d96125ea565b8152602001600182015481526020016002820154815260200160038201548152602001600482015481526020016005820160009054906101000a900460ff1615151515815250509050806000015181602001518260400151836060015184608001518560a001519650965096509650965096505091939550919395565b600e546001600160a01b031633146112b05760405162461bcd60e51b815260206004820152601960248201527f4f6e6c79206f7261636c652063616e2063616c6c20746869730000000000000060448201526064016108da565b6000828152600960205260408120548391036113055760405162461bcd60e51b8152602060048201526014602482015273145d595cdd08191bd95cc81b9bdd08195e1a5cdd60621b60448201526064016108da565b600083815260096020526040902060050154839060ff1661135e5760405162461bcd60e51b81526020600482015260136024820152725175657374206973206e6f742061637469766560681b60448201526064016108da565b61136661219c565b6001600160a01b03851660009081526007602052604090206005015460ff166113c75760405162461bcd60e51b8152602060048201526013602482015272155cd95c881b9bdd081c9959da5cdd195c9959606a1b60448201526064016108da565b6000838152600a602052604090205460ff161561141b5760405162461bcd60e51b8152602060048201526012602482015271141c9bdbd988185b1c9958591e481d5cd95960721b60448201526064016108da565b8261145d5760405162461bcd60e51b8152602060048201526012602482015271092dcecc2d8d2c840e0e4dedecc40d0c2e6d60731b60448201526064016108da565b600060096000868152602001908152602001600020604051806101000160405290816000820154815260200160018201805461149890612899565b80601f01602080910402602001604051908101604052809291908181526020018280546114c490612899565b80156115115780601f106114e657610100808354040283529160200191611511565b820191906000526020600020905b8154815290600101906020018083116114f457829003601f168201915b5050505050815260200160028201805461152a90612899565b80601f016020809104026020016040519081016040528092919081815260200182805461155690612899565b80156115a35780601f10611578576101008083540402835291602001916115a3565b820191906000526020600020905b81548152906001019060200180831161158657829003601f168201915b5050509183525050600382015460208201526004808301546040830152600583015460ff9081161515606084015260068401546080840152600784015460a09093019216908111156115f7576115f76125ea565b6004811115611608576116086125ea565b9052506001600160a01b038716600090815260086020908152604080832089845290915290205460c0820151919250906116429082612918565b4210156116915760405162461bcd60e51b815260206004820152601a60248201527f517565737420636f6f6c646f776e206e6f74206578706972656400000000000060448201526064016108da565b6000858152600a60209081526040808320805460ff191660019081179091556001600160a01b038b16845260079092528220805460808601519282018054929460ff9290921693929091906116e7908490612918565b9250508190555060018260020160008282546117039190612918565b909155505042600383018190556001600160a01b038a811660008181526008602090815260408083208e84528252808320869055805160c0810182528e8152918201938452810194855260608082018d8152908a01805160808401908152600160a08501818152600b8054928301815590965293517f0175b7a638427703f0dbe7bb9bbf987a2551717b34e79f33b5b1008d1fa01db960069095029485015594517f0175b7a638427703f0dbe7bb9bbf987a2551717b34e79f33b5b1008d1fa01dba840180546001600160a01b031916919097161790955594517f0175b7a638427703f0dbe7bb9bbf987a2551717b34e79f33b5b1008d1fa01dbb82015593517f0175b7a638427703f0dbe7bb9bbf987a2551717b34e79f33b5b1008d1fa01dbc85015590517f0175b7a638427703f0dbe7bb9bbf987a2551717b34e79f33b5b1008d1fa01dbd840155517f0175b7a638427703f0dbe7bb9bbf987a2551717b34e79f33b5b1008d1fa01dbe909201805460ff1916921515929092179091555161188e908a906121c6565b600061189d8360010154612200565b90508160048111156118b1576118b16125ea565b8160048111156118c3576118c36125ea565b146119315782548190849060ff191660018360048111156118e6576118e66125ea565b0217905550896001600160a01b03167f090858214f50d1ef592490599889d04973d69c13ff6a0639567fbf123649c9fa8383426040516119289392919061292b565b60405180910390a25b60608086015160408051428152602081018c9052908101919091528a916001600160a01b038d16917f66609b14de95e77d50240c1dffa83760d541dfb8a29f5812afa6575fd66ed9e4910160405180910390a350505050506119936001600655565b5050505050565b60003361068f8185856120eb565b600080600080600080600b8054905087106119fb5760405162461bcd60e51b8152602060048201526013602482015272496e646578206f7574206f6620626f756e647360681b60448201526064016108da565b6000600b8881548110611a1057611a106128d3565b60009182526020918290206040805160c081018252600693909302909101805480845260018201546001600160a01b0316948401859052600282015492840183905260038201546060850181905260048301546080860181905260059093015460ff16151560a0909501859052909d949c50919a509098509650945092505050565b6000611a9c61203f565b6000875111611ae35760405162461bcd60e51b8152602060048201526013602482015272145d595cdd081b985b59481c995c5d5a5c9959606a1b60448201526064016108da565b60008511611b335760405162461bcd60e51b815260206004820152601760248201527f526577617264206d75737420626520706f73697469766500000000000000000060448201526064016108da565b60008411611b835760405162461bcd60e51b815260206004820152601d60248201527f496d706163742073636f7265206d75737420626520706f73697469766500000060448201526064016108da565b600d805460009182611b94836128ff565b919050559050604051806101000160405280828152602001898152602001888152602001878152602001868152602001600115158152602001858152602001846004811115611be557611be56125ea565b9052600082815260096020908152604090912082518155908201516001820190611c0f90826129a3565b5060408201516002820190611c2490826129a3565b5060608201516003820155608082015160048083019190915560a083015160058301805491151560ff1992831617905560c0840151600684015560e08401516007840180549193909291909116906001908490811115611c8657611c866125ea565b0217905550905050600c6000846004811115611ca457611ca46125ea565b6004811115611cb557611cb56125ea565b81526020808201929092526040908101600090812080546001810182559082529290209091018290555181907f081a3e146b56e9690728c0eb05145923b1d36a59d7dc8175ad7133d1aef84f3690611d12908b908a908a90612a63565b60405180910390a2979650505050505050565b6001600160a01b03821660009081526007602052604081206005015460ff16611d5057506000610695565b60008281526009602052604090206005015460ff16611d7157506000610695565b6001600160a01b0383166000908152600860209081526040808320858452825280832054600990925290912060060154611dab8183612918565b42101595945050505050565b60096020526000908152604090208054600182018054919291611dd990612899565b80601f0160208091040260200160405190810160405280929190818152602001828054611e0590612899565b8015611e525780601f10611e2757610100808354040283529160200191611e52565b820191906000526020600020905b815481529060010190602001808311611e3557829003601f168201915b505050505090806002018054611e6790612899565b80601f0160208091040260200160405190810160405280929190818152602001828054611e9390612899565b8015611ee05780601f10611eb557610100808354040283529160200191611ee0565b820191906000526020600020905b815481529060010190602001808311611ec357829003601f168201915b50505060038401546004850154600586015460068701546007909701549596929591945060ff90811693501688565b600b8181548110611f1f57600080fd5b60009182526020909120600690910201805460018201546002830154600384015460048501546005909501549395506001600160a01b0390921693909260ff1686565b611f6a61203f565b6001600160a01b038116611f9457604051631e4fbdf760e01b8152600060048201526024016108da565b611f9d8161214a565b50565b6060600c6000836004811115611fb857611fb86125ea565b6004811115611fc957611fc96125ea565b815260200190815260200160002080548060200260200160405190810160405280929190818152602001828054801561202157602002820191906000526020600020905b81548152602001906001019080831161200d575b50505050509050919050565b61203a838383600161224b565b505050565b6005546001600160a01b03163314610ec65760405163118cdaa760e01b81523360048201526024016108da565b6001600160a01b038381166000908152600160209081526040808320938616835292905220546000198110156120e557818110156120d657604051637dc7a0d960e11b81526001600160a01b038416600482015260248101829052604481018390526064016108da565b6120e58484848403600061224b565b50505050565b6001600160a01b03831661211557604051634b637e8f60e11b8152600060048201526024016108da565b6001600160a01b03821661213f5760405163ec442f0560e01b8152600060048201526024016108da565b61203a838383612320565b600580546001600160a01b038381166001600160a01b0319831681179093556040519116919082907f8be0079c531659141344cd1fd0a4f28419497f9722a3daafe3b4186f6b6457e090600090a35050565b6002600654036121bf57604051633ee5aeb560e01b815260040160405180910390fd5b6002600655565b6001600160a01b0382166121f05760405163ec442f0560e01b8152600060048201526024016108da565b6121fc60008383612320565b5050565b60006101f4821061221357506004919050565b6096821061222357506003919050565b6032821061223357506002919050565b600a821061224357506001919050565b506000919050565b6001600160a01b0384166122755760405163e602df0560e01b8152600060048201526024016108da565b6001600160a01b03831661229f57604051634a1406b160e11b8152600060048201526024016108da565b6001600160a01b03808516600090815260016020908152604080832093871683529290522082905580156120e557826001600160a01b0316846001600160a01b03167f8c5be1e5ebec7d5bd14f71427d1e84f3dd0314c0f7b2291e5b200ac8c7c3b9258460405161231291815260200190565b60405180910390a350505050565b6001600160a01b03831661234b5780600260008282546123409190612918565b909155506123bd9050565b6001600160a01b0383166000908152602081905260409020548181101561239e5760405163391434e360e21b81526001600160a01b038516600482015260248101829052604481018390526064016108da565b6001600160a01b03841660009081526020819052604090209082900390555b6001600160a01b0382166123d9576002805482900390556123f8565b6001600160a01b03821660009081526020819052604090208054820190555b816001600160a01b0316836001600160a01b03167fddf252ad1be2c89b69c2b068fc378daa952ba7f163c4a11628f55a4df523b3ef8360405161243d91815260200190565b60405180910390a3505050565b6000815180845260005b8181101561247057602081850181015186830182015201612454565b506000602082860101526020601f19601f83011685010191505092915050565b6020815260006124a3602083018461244a565b9392505050565b80356001600160a01b03811681146124c157600080fd5b919050565b600080604083850312156124d957600080fd5b6124e2836124aa565b946020939093013593505050565b8035600581106124c157600080fd5b60006020828403121561251157600080fd5b6124a3826124f0565b6020808252825182820181905260009190848201906040850190845b8181101561255257835183529284019291840191600101612536565b50909695505050505050565b6000806040838503121561257157600080fd5b823591506020830135801515811461258857600080fd5b809150509250929050565b6000806000606084860312156125a857600080fd5b6125b1846124aa565b92506125bf602085016124aa565b9150604084013590509250925092565b6000602082840312156125e157600080fd5b6124a3826124aa565b634e487b7160e01b600052602160045260246000fd5b60058110611f9d57634e487b7160e01b600052602160045260246000fd5b60c0810161262b88612600565b9681526020810195909552604085019390935260608401919091526080830152151560a09091015290565b60006020828403121561266857600080fd5b5035919050565b60006101008a83528060208401526126898184018b61244a565b9050828103604084015261269d818a61244a565b91505086606083015285608083015284151560a08301528360c08301526126c383612600565b8260e08301529998505050505050505050565b600080604083850312156126e957600080fd5b6126f2836124aa565b9150612700602084016124f0565b90509250929050565b60008060006060848603121561271e57600080fd5b612727846124aa565b95602085013595506040909401359392505050565b634e487b7160e01b600052604160045260246000fd5b600082601f83011261276357600080fd5b813567ffffffffffffffff8082111561277e5761277e61273c565b604051601f8301601f19908116603f011681019082821181831017156127a6576127a661273c565b816040528381528660208588010111156127bf57600080fd5b836020870160208301376000602085830101528094505050505092915050565b60008060008060008060c087890312156127f857600080fd5b863567ffffffffffffffff8082111561281057600080fd5b61281c8a838b01612752565b9750602089013591508082111561283257600080fd5b5061283f89828a01612752565b95505060408701359350606087013592506080870135915061286360a088016124f0565b90509295509295509295565b6000806040838503121561288257600080fd5b61288b836124aa565b9150612700602084016124aa565b600181811c908216806128ad57607f821691505b6020821081036128cd57634e487b7160e01b600052602260045260246000fd5b50919050565b634e487b7160e01b600052603260045260246000fd5b634e487b7160e01b600052601160045260246000fd5b600060018201612911576129116128e9565b5060010190565b80820180821115610695576106956128e9565b6060810161293885612600565b84825261294484612600565b602082019390935260400152919050565b601f82111561203a57600081815260208120601f850160051c8101602086101561297c5750805b601f850160051c820191505b8181101561299b57828155600101612988565b505050505050565b815167ffffffffffffffff8111156129bd576129bd61273c565b6129d1816129cb8454612899565b84612955565b602080601f831160018114612a0657600084156129ee5750858301515b600019600386901b1c1916600185901b17855561299b565b600085815260208120601f198616915b82811015612a3557888601518255948401946001909101908401612a16565b5085821015612a535787850151600019600388901b60f8161c191681555b5050505050600190811b01905550565b606081526000612a76606083018661244a565b6020830194909452506040015291905056fea264697066735822122093aa33c18e8e1bf203ad1f0cff1c105bebb5036fd2bd43770ac80036f484009e64736f6c63430008140033",
  "linkReferences": {},
  "deployedLinkReferences": {}
}