{
  "_format": "hh-sol-artifact-1",
  "contractName": "ImpactQuest",
  "sourceName": "contracts/ImpactQuest.sol",
  "abi": [
    {
      "inputs": [
        {
          "internalType": "address",
          "name": "_oracleAddress",
          "type": "address"
        }
      ],
      "stateMutability": "nonpayable",
      "type": "constructor"
    },
    {
      "inputs": [
        {
          "internalType": "address",
          "name": "spender",
          "type": "address"
        },
        {
          "internalType": "uint256",
          "name": "allowance",
          "type": "uint256"
        },
        {
          "internalType": "uint256",
          "name": "needed",
          "type": "uint256"
        }
      ],
      "name": "ERC20InsufficientAllowance",
      "type": "error"
    },
    {
      "inputs": [
        {
          "internalType": "address",
          "name": "sender",
          "type": "address"
        },
        {
          "internalType": "uint256",
          "name": "balance",
          "type": "uint256"
        },
        {
          "internalType": "uint256",
          "name": "needed",
          "type": "uint256"
        }
      ],
      "name": "ERC20InsufficientBalance",
      "type": "error"
    },
    {
      "inputs": [
        {
          "internalType": "address",
          "name": "approver",
          "type": "address"
        }
      ],
      "name": "ERC20InvalidApprover",
      "type": "error"
    },
    {
      "inputs": [
        {
          "internalType": "address",
          "name": "receiver",
          "type": "address"
        }
      ],
      "name": "ERC20InvalidReceiver",
      "type": "error"
    },
    {
      "inputs": [
        {
          "internalType": "address",
          "name": "sender",
          "type": "address"
        }
      ],
      "name": "ERC20InvalidSender",
      "type": "error"
    },
    {
      "inputs": [
        {
          "internalType": "address",
          "name": "spender",
          "type": "address"
        }
      ],
      "name": "ERC20InvalidSpender",
      "type": "error"
    },
    {
      "inputs": [
        {
          "internalType": "address",
          "name": "owner",
          "type": "address"
        }
      ],
      "name": "OwnableInvalidOwner",
      "type": "error"
    },
    {
      "inputs": [
        {
          "internalType": "address",
          "name": "account",
          "type": "address"
        }
      ],
      "name": "OwnableUnauthorizedAccount",
      "type": "error"
    },
    {
      "inputs": [],
      "name": "ReentrancyGuardReentrantCall",
      "type": "error"
    },
    {
      "anonymous": false,
      "inputs": [
        {
          "indexed": true,
          "internalType": "address",
          "name": "owner",
          "type": "address"
        },
        {
          "indexed": true,
          "internalType": "address",
          "name": "spender",
          "type": "address"
        },
        {
          "indexed": false,
          "internalType": "uint256",
          "name": "value",
          "type": "uint256"
        }
      ],
      "name": "Approval",
      "type": "event"
    },
    {
      "anonymous": false,
      "inputs": [
        {
          "indexed": true,
          "internalType": "address",
          "name": "creator",
          "type": "address"
        },
        {
          "indexed": true,
          "internalType": "uint256",
          "name": "questId",
          "type": "uint256"
        },
        {
          "indexed": false,
          "internalType": "uint256",
          "name": "rewardAmount",
          "type": "uint256"
        },
        {
          "indexed": false,
          "internalType": "uint256",
          "name": "totalCompletions",
          "type": "uint256"
        }
      ],
      "name": "CreatorRewarded",
      "type": "event"
    },
    {
      "anonymous": false,
      "inputs": [
        {
          "indexed": true,
          "internalType": "address",
          "name": "user",
          "type": "address"
        },
        {
          "indexed": false,
          "internalType": "enum ImpactQuest.UserLevel",
          "name": "oldLevel",
          "type": "uint8"
        },
        {
          "indexed": false,
          "internalType": "enum ImpactQuest.UserLevel",
          "name": "newLevel",
          "type": "uint8"
        },
        {
          "indexed": false,
          "internalType": "uint256",
          "name": "timestamp",
          "type": "uint256"
        }
      ],
      "name": "LevelUp",
      "type": "event"
    },
    {
      "anonymous": false,
      "inputs": [
        {
          "indexed": true,
          "internalType": "address",
          "name": "oldOracle",
          "type": "address"
        },
        {
          "indexed": true,
          "internalType": "address",
          "name": "newOracle",
          "type": "address"
        }
      ],
      "name": "OracleAddressUpdated",
      "type": "event"
    },
    {
      "anonymous": false,
      "inputs": [
        {
          "indexed": true,
          "internalType": "address",
          "name": "previousOwner",
          "type": "address"
        },
        {
          "indexed": true,
          "internalType": "address",
          "name": "newOwner",
          "type": "address"
        }
      ],
      "name": "OwnershipTransferred",
      "type": "event"
    },
    {
      "anonymous": false,
      "inputs": [
        {
          "indexed": true,
          "internalType": "address",
          "name": "user",
          "type": "address"
        },
        {
          "indexed": true,
          "internalType": "uint256",
          "name": "questId",
          "type": "uint256"
        },
        {
          "indexed": false,
          "internalType": "uint256",
          "name": "timestamp",
          "type": "uint256"
        },
        {
          "indexed": false,
          "internalType": "bytes32",
          "name": "proofHash",
          "type": "bytes32"
        },
        {
          "indexed": false,
          "internalType": "uint256",
          "name": "rewardAmount",
          "type": "uint256"
        }
      ],
      "name": "QuestCompleted",
      "type": "event"
    },
    {
      "anonymous": false,
      "inputs": [
        {
          "indexed": true,
          "internalType": "uint256",
          "name": "questId",
          "type": "uint256"
        },
        {
          "indexed": false,
          "internalType": "string",
          "name": "name",
          "type": "string"
        },
        {
          "indexed": false,
          "internalType": "uint256",
          "name": "rewardAmount",
          "type": "uint256"
        },
        {
          "indexed": false,
          "internalType": "uint256",
          "name": "impactScore",
          "type": "uint256"
        }
      ],
      "name": "QuestCreated",
      "type": "event"
    },
    {
      "anonymous": false,
      "inputs": [
        {
          "indexed": true,
          "internalType": "uint256",
          "name": "questId",
          "type": "uint256"
        },
        {
          "indexed": false,
          "internalType": "bool",
          "name": "isActive",
          "type": "bool"
        }
      ],
      "name": "QuestUpdated",
      "type": "event"
    },
    {
      "anonymous": false,
      "inputs": [
        {
          "indexed": true,
          "internalType": "uint256",
          "name": "transactionId",
          "type": "uint256"
        },
        {
          "indexed": true,
          "internalType": "address",
          "name": "user",
          "type": "address"
        },
        {
          "indexed": false,
          "internalType": "enum ImpactQuest.RewardTransactionType",
          "name": "transactionType",
          "type": "uint8"
        },
        {
          "indexed": false,
          "internalType": "int256",
          "name": "amount",
          "type": "int256"
        },
        {
          "indexed": false,
          "internalType": "uint256",
          "name": "timestamp",
          "type": "uint256"
        }
      ],
      "name": "RewardTransactionRecorded",
      "type": "event"
    },
    {
      "anonymous": false,
      "inputs": [
        {
          "indexed": true,
          "internalType": "address",
          "name": "from",
          "type": "address"
        },
        {
          "indexed": true,
          "internalType": "address",
          "name": "to",
          "type": "address"
        },
        {
          "indexed": false,
          "internalType": "uint256",
          "name": "value",
          "type": "uint256"
        }
      ],
      "name": "Transfer",
      "type": "event"
    },
    {
      "anonymous": false,
      "inputs": [
        {
          "indexed": true,
          "internalType": "address",
          "name": "user",
          "type": "address"
        },
        {
          "indexed": false,
          "internalType": "uint256",
          "name": "timestamp",
          "type": "uint256"
        }
      ],
      "name": "UserJoined",
      "type": "event"
    },
    {
      "inputs": [],
      "name": "SAPLING_THRESHOLD",
      "outputs": [
        {
          "internalType": "uint256",
          "name": "",
          "type": "uint256"
        }
      ],
      "stateMutability": "view",
      "type": "function"
    },
    {
      "inputs": [],
      "name": "SEEDLING_THRESHOLD",
      "outputs": [
        {
          "internalType": "uint256",
          "name": "",
          "type": "uint256"
        }
      ],
      "stateMutability": "view",
      "type": "function"
    },
    {
      "inputs": [],
      "name": "SPROUT_THRESHOLD",
      "outputs": [
        {
          "internalType": "uint256",
          "name": "",
          "type": "uint256"
        }
      ],
      "stateMutability": "view",
      "type": "function"
    },
    {
      "inputs": [],
      "name": "TOKENS_PER_QUEST",
      "outputs": [
        {
          "internalType": "uint256",
          "name": "",
          "type": "uint256"
        }
      ],
      "stateMutability": "view",
      "type": "function"
    },
    {
      "inputs": [],
      "name": "TREE_THRESHOLD",
      "outputs": [
        {
          "internalType": "uint256",
          "name": "",
          "type": "uint256"
        }
      ],
      "stateMutability": "view",
      "type": "function"
    },
    {
      "inputs": [
        {
          "internalType": "address",
          "name": "owner",
          "type": "address"
        },
        {
          "internalType": "address",
          "name": "spender",
          "type": "address"
        }
      ],
      "name": "allowance",
      "outputs": [
        {
          "internalType": "uint256",
          "name": "",
          "type": "uint256"
        }
      ],
      "stateMutability": "view",
      "type": "function"
    },
    {
      "inputs": [
        {
          "internalType": "address",
          "name": "spender",
          "type": "address"
        },
        {
          "internalType": "uint256",
          "name": "value",
          "type": "uint256"
        }
      ],
      "name": "approve",
      "outputs": [
        {
          "internalType": "bool",
          "name": "",
          "type": "bool"
        }
      ],
      "stateMutability": "nonpayable",
      "type": "function"
    },
    {
      "inputs": [
        {
          "internalType": "address",
          "name": "account",
          "type": "address"
        }
      ],
      "name": "balanceOf",
      "outputs": [
        {
          "internalType": "uint256",
          "name": "",
          "type": "uint256"
        }
      ],
      "stateMutability": "view",
      "type": "function"
    },
    {
      "inputs": [
        {
          "internalType": "address",
          "name": "user",
          "type": "address"
        },
        {
          "internalType": "uint256",
          "name": "questId",
          "type": "uint256"
        }
      ],
      "name": "canCompleteQuest",
      "outputs": [
        {
          "internalType": "bool",
          "name": "",
          "type": "bool"
        }
      ],
      "stateMutability": "view",
      "type": "function"
    },
    {
      "inputs": [
        {
          "internalType": "address",
          "name": "user",
          "type": "address"
        },
        {
          "internalType": "uint256",
          "name": "questId",
          "type": "uint256"
        },
        {
          "internalType": "bytes32",
          "name": "proofHash",
          "type": "bytes32"
        }
      ],
      "name": "completeQuest",
      "outputs": [],
      "stateMutability": "nonpayable",
      "type": "function"
    },
    {
      "inputs": [
        {
          "internalType": "uint256",
          "name": "",
          "type": "uint256"
        }
      ],
      "name": "completionHistory",
      "outputs": [
        {
          "internalType": "uint256",
          "name": "questId",
          "type": "uint256"
        },
        {
          "internalType": "address",
          "name": "user",
          "type": "address"
        },
        {
          "internalType": "uint256",
          "name": "timestamp",
          "type": "uint256"
        },
        {
          "internalType": "bytes32",
          "name": "proofHash",
          "type": "bytes32"
        },
        {
          "internalType": "uint256",
          "name": "rewardAmount",
          "type": "uint256"
        },
        {
          "internalType": "bool",
          "name": "verified",
          "type": "bool"
        }
      ],
      "stateMutability": "view",
      "type": "function"
    },
    {
      "inputs": [
        {
          "internalType": "string",
          "name": "name",
          "type": "string"
        },
        {
          "internalType": "string",
          "name": "description",
          "type": "string"
        },
        {
          "internalType": "uint256",
          "name": "rewardAmount",
          "type": "uint256"
        },
        {
          "internalType": "uint256",
          "name": "impactScore",
          "type": "uint256"
        },
        {
          "internalType": "uint256",
          "name": "cooldownPeriod",
          "type": "uint256"
        },
        {
          "internalType": "enum ImpactQuest.QuestCategory",
          "name": "category",
          "type": "uint8"
        },
        {
          "internalType": "uint256",
          "name": "creatorRewardPerCompletion",
          "type": "uint256"
        }
      ],
      "name": "createQuest",
      "outputs": [
        {
          "internalType": "uint256",
          "name": "",
          "type": "uint256"
        }
      ],
      "stateMutability": "nonpayable",
      "type": "function"
    },
    {
      "inputs": [],
      "name": "decimals",
      "outputs": [
        {
          "internalType": "uint8",
          "name": "",
          "type": "uint8"
        }
      ],
      "stateMutability": "view",
      "type": "function"
    },
    {
      "inputs": [
        {
          "internalType": "enum ImpactQuest.QuestCategory",
          "name": "category",
          "type": "uint8"
        }
      ],
      "name": "getActiveQuestsByCategory",
      "outputs": [
        {
          "internalType": "uint256[]",
          "name": "",
          "type": "uint256[]"
        }
      ],
      "stateMutability": "view",
      "type": "function"
    },
    {
      "inputs": [
        {
          "internalType": "enum ImpactQuest.QuestCategory",
          "name": "category",
          "type": "uint8"
        }
      ],
      "name": "getCategoryName",
      "outputs": [
        {
          "internalType": "string",
          "name": "",
          "type": "string"
        }
      ],
      "stateMutability": "pure",
      "type": "function"
    },
    {
      "inputs": [
        {
          "internalType": "uint256",
          "name": "index",
          "type": "uint256"
        }
      ],
      "name": "getCompletion",
      "outputs": [
        {
          "internalType": "uint256",
          "name": "questId",
          "type": "uint256"
        },
        {
          "internalType": "address",
          "name": "user",
          "type": "address"
        },
        {
          "internalType": "uint256",
          "name": "timestamp",
          "type": "uint256"
        },
        {
          "internalType": "bytes32",
          "name": "proofHash",
          "type": "bytes32"
        },
        {
          "internalType": "uint256",
          "name": "rewardAmount",
          "type": "uint256"
        },
        {
          "internalType": "bool",
          "name": "verified",
          "type": "bool"
        }
      ],
      "stateMutability": "view",
      "type": "function"
    },
    {
      "inputs": [
        {
          "internalType": "uint256",
          "name": "questId",
          "type": "uint256"
        }
      ],
      "name": "getQuest",
      "outputs": [
        {
          "internalType": "uint256",
          "name": "id",
          "type": "uint256"
        },
        {
          "internalType": "string",
          "name": "name",
          "type": "string"
        },
        {
          "internalType": "string",
          "name": "description",
          "type": "string"
        },
        {
          "internalType": "uint256",
          "name": "rewardAmount",
          "type": "uint256"
        },
        {
          "internalType": "uint256",
          "name": "impactScore",
          "type": "uint256"
        },
        {
          "internalType": "bool",
          "name": "isActive",
          "type": "bool"
        },
        {
          "internalType": "uint256",
          "name": "cooldownPeriod",
          "type": "uint256"
        },
        {
          "internalType": "enum ImpactQuest.QuestCategory",
          "name": "category",
          "type": "uint8"
        },
        {
          "internalType": "address",
          "name": "creator",
          "type": "address"
        },
        {
          "internalType": "uint256",
          "name": "creatorRewardPerCompletion",
          "type": "uint256"
        },
        {
          "internalType": "uint256",
          "name": "totalCompletions",
          "type": "uint256"
        }
      ],
      "stateMutability": "view",
      "type": "function"
    },
    {
      "inputs": [
        {
          "internalType": "enum ImpactQuest.QuestCategory",
          "name": "category",
          "type": "uint8"
        }
      ],
      "name": "getQuestsByCategory",
      "outputs": [
        {
          "internalType": "uint256[]",
          "name": "",
          "type": "uint256[]"
        }
      ],
      "stateMutability": "view",
      "type": "function"
    },
    {
      "inputs": [],
      "name": "getTotalCompletions",
      "outputs": [
        {
          "internalType": "uint256",
          "name": "",
          "type": "uint256"
        }
      ],
      "stateMutability": "view",
      "type": "function"
    },
    {
      "inputs": [],
      "name": "getTotalTransactions",
      "outputs": [
        {
          "internalType": "uint256",
          "name": "",
          "type": "uint256"
        }
      ],
      "stateMutability": "view",
      "type": "function"
    },
    {
      "inputs": [
        {
          "internalType": "uint256",
          "name": "transactionId",
          "type": "uint256"
        }
      ],
      "name": "getTransaction",
      "outputs": [
        {
          "internalType": "uint256",
          "name": "id",
          "type": "uint256"
        },
        {
          "internalType": "address",
          "name": "user",
          "type": "address"
        },
        {
          "internalType": "enum ImpactQuest.RewardTransactionType",
          "name": "transactionType",
          "type": "uint8"
        },
        {
          "internalType": "int256",
          "name": "amount",
          "type": "int256"
        },
        {
          "internalType": "uint256",
          "name": "questId",
          "type": "uint256"
        },
        {
          "internalType": "string",
          "name": "description",
          "type": "string"
        },
        {
          "internalType": "uint256",
          "name": "timestamp",
          "type": "uint256"
        },
        {
          "internalType": "enum ImpactQuest.UserLevel",
          "name": "previousLevel",
          "type": "uint8"
        },
        {
          "internalType": "enum ImpactQuest.UserLevel",
          "name": "newLevel",
          "type": "uint8"
        }
      ],
      "stateMutability": "view",
      "type": "function"
    },
    {
      "inputs": [
        {
          "internalType": "address",
          "name": "user",
          "type": "address"
        }
      ],
      "name": "getUserLevelName",
      "outputs": [
        {
          "internalType": "string",
          "name": "",
          "type": "string"
        }
      ],
      "stateMutability": "view",
      "type": "function"
    },
    {
      "inputs": [
        {
          "internalType": "address",
          "name": "user",
          "type": "address"
        }
      ],
      "name": "getUserProfile",
      "outputs": [
        {
          "internalType": "enum ImpactQuest.UserLevel",
          "name": "level",
          "type": "uint8"
        },
        {
          "internalType": "uint256",
          "name": "totalImpactScore",
          "type": "uint256"
        },
        {
          "internalType": "uint256",
          "name": "questsCompleted",
          "type": "uint256"
        },
        {
          "internalType": "uint256",
          "name": "lastQuestTimestamp",
          "type": "uint256"
        },
        {
          "internalType": "uint256",
          "name": "joinedTimestamp",
          "type": "uint256"
        },
        {
          "internalType": "bool",
          "name": "isActive",
          "type": "bool"
        }
      ],
      "stateMutability": "view",
      "type": "function"
    },
    {
      "inputs": [
        {
          "internalType": "address",
          "name": "user",
          "type": "address"
        },
        {
          "internalType": "enum ImpactQuest.QuestCategory",
          "name": "category",
          "type": "uint8"
        }
      ],
      "name": "getUserQuestsByCategory",
      "outputs": [
        {
          "internalType": "uint256",
          "name": "count",
          "type": "uint256"
        }
      ],
      "stateMutability": "view",
      "type": "function"
    },
    {
      "inputs": [
        {
          "internalType": "address",
          "name": "user",
          "type": "address"
        },
        {
          "internalType": "uint256",
          "name": "count",
          "type": "uint256"
        }
      ],
      "name": "getUserRecentTransactions",
      "outputs": [
        {
          "components": [
            {
              "internalType": "uint256",
              "name": "id",
              "type": "uint256"
            },
            {
              "internalType": "address",
              "name": "user",
              "type": "address"
            },
            {
              "internalType": "enum ImpactQuest.RewardTransactionType",
              "name": "transactionType",
              "type": "uint8"
            },
            {
              "internalType": "int256",
              "name": "amount",
              "type": "int256"
            },
            {
              "internalType": "uint256",
              "name": "questId",
              "type": "uint256"
            },
            {
              "internalType": "string",
              "name": "description",
              "type": "string"
            },
            {
              "internalType": "uint256",
              "name": "timestamp",
              "type": "uint256"
            },
            {
              "internalType": "enum ImpactQuest.UserLevel",
              "name": "previousLevel",
              "type": "uint8"
            },
            {
              "internalType": "enum ImpactQuest.UserLevel",
              "name": "newLevel",
              "type": "uint8"
            }
          ],
          "internalType": "struct ImpactQuest.RewardTransaction[]",
          "name": "",
          "type": "tuple[]"
        }
      ],
      "stateMutability": "view",
      "type": "function"
    },
    {
      "inputs": [
        {
          "internalType": "address",
          "name": "user",
          "type": "address"
        }
      ],
      "name": "getUserTransactionCount",
      "outputs": [
        {
          "internalType": "uint256",
          "name": "",
          "type": "uint256"
        }
      ],
      "stateMutability": "view",
      "type": "function"
    },
    {
      "inputs": [
        {
          "internalType": "address",
          "name": "user",
          "type": "address"
        }
      ],
      "name": "getUserTransactionIds",
      "outputs": [
        {
          "internalType": "uint256[]",
          "name": "",
          "type": "uint256[]"
        }
      ],
      "stateMutability": "view",
      "type": "function"
    },
    {
      "inputs": [],
      "name": "joinImpactQuest",
      "outputs": [],
      "stateMutability": "nonpayable",
      "type": "function"
    },
    {
      "inputs": [
        {
          "internalType": "address",
          "name": "",
          "type": "address"
        },
        {
          "internalType": "uint256",
          "name": "",
          "type": "uint256"
        }
      ],
      "name": "lastQuestCompletionTime",
      "outputs": [
        {
          "internalType": "uint256",
          "name": "",
          "type": "uint256"
        }
      ],
      "stateMutability": "view",
      "type": "function"
    },
    {
      "inputs": [],
      "name": "name",
      "outputs": [
        {
          "internalType": "string",
          "name": "",
          "type": "string"
        }
      ],
      "stateMutability": "view",
      "type": "function"
    },
    {
      "inputs": [],
      "name": "nextQuestId",
      "outputs": [
        {
          "internalType": "uint256",
          "name": "",
          "type": "uint256"
        }
      ],
      "stateMutability": "view",
      "type": "function"
    },
    {
      "inputs": [],
      "name": "nextTransactionId",
      "outputs": [
        {
          "internalType": "uint256",
          "name": "",
          "type": "uint256"
        }
      ],
      "stateMutability": "view",
      "type": "function"
    },
    {
      "inputs": [],
      "name": "oracleAddress",
      "outputs": [
        {
          "internalType": "address",
          "name": "",
          "type": "address"
        }
      ],
      "stateMutability": "view",
      "type": "function"
    },
    {
      "inputs": [],
      "name": "owner",
      "outputs": [
        {
          "internalType": "address",
          "name": "",
          "type": "address"
        }
      ],
      "stateMutability": "view",
      "type": "function"
    },
    {
      "inputs": [
        {
          "internalType": "uint256",
          "name": "",
          "type": "uint256"
        }
      ],
      "name": "quests",
      "outputs": [
        {
          "internalType": "uint256",
          "name": "id",
          "type": "uint256"
        },
        {
          "internalType": "string",
          "name": "name",
          "type": "string"
        },
        {
          "internalType": "string",
          "name": "description",
          "type": "string"
        },
        {
          "internalType": "uint256",
          "name": "rewardAmount",
          "type": "uint256"
        },
        {
          "internalType": "uint256",
          "name": "impactScore",
          "type": "uint256"
        },
        {
          "internalType": "bool",
          "name": "isActive",
          "type": "bool"
        },
        {
          "internalType": "uint256",
          "name": "cooldownPeriod",
          "type": "uint256"
        },
        {
          "internalType": "enum ImpactQuest.QuestCategory",
          "name": "category",
          "type": "uint8"
        },
        {
          "internalType": "address",
          "name": "creator",
          "type": "address"
        },
        {
          "internalType": "uint256",
          "name": "creatorRewardPerCompletion",
          "type": "uint256"
        },
        {
          "internalType": "uint256",
          "name": "totalCompletions",
          "type": "uint256"
        }
      ],
      "stateMutability": "view",
      "type": "function"
    },
    {
      "inputs": [
        {
          "internalType": "address",
          "name": "user",
          "type": "address"
        },
        {
          "internalType": "uint256",
          "name": "tokensSpent",
          "type": "uint256"
        },
        {
          "internalType": "string",
          "name": "shopName",
          "type": "string"
        }
      ],
      "name": "recordRedemption",
      "outputs": [],
      "stateMutability": "payable",
      "type": "function"
    },
    {
      "inputs": [
        {
          "internalType": "address",
          "name": "user",
          "type": "address"
        },
        {
          "internalType": "uint256",
          "name": "tokensRefunded",
          "type": "uint256"
        },
        {
          "internalType": "string",
          "name": "reason",
          "type": "string"
        }
      ],
      "name": "recordRedemptionRefund",
      "outputs": [],
      "stateMutability": "nonpayable",
      "type": "function"
    },
    {
      "inputs": [],
      "name": "renounceOwnership",
      "outputs": [],
      "stateMutability": "nonpayable",
      "type": "function"
    },
    {
      "inputs": [
        {
          "internalType": "uint256",
          "name": "",
          "type": "uint256"
        }
      ],
      "name": "rewardTransactions",
      "outputs": [
        {
          "internalType": "uint256",
          "name": "id",
          "type": "uint256"
        },
        {
          "internalType": "address",
          "name": "user",
          "type": "address"
        },
        {
          "internalType": "enum ImpactQuest.RewardTransactionType",
          "name": "transactionType",
          "type": "uint8"
        },
        {
          "internalType": "int256",
          "name": "amount",
          "type": "int256"
        },
        {
          "internalType": "uint256",
          "name": "questId",
          "type": "uint256"
        },
        {
          "internalType": "string",
          "name": "description",
          "type": "string"
        },
        {
          "internalType": "uint256",
          "name": "timestamp",
          "type": "uint256"
        },
        {
          "internalType": "enum ImpactQuest.UserLevel",
          "name": "previousLevel",
          "type": "uint8"
        },
        {
          "internalType": "enum ImpactQuest.UserLevel",
          "name": "newLevel",
          "type": "uint8"
        }
      ],
      "stateMutability": "view",
      "type": "function"
    },
    {
      "inputs": [
        {
          "internalType": "address",
          "name": "newOracle",
          "type": "address"
        }
      ],
      "name": "setOracleAddress",
      "outputs": [],
      "stateMutability": "nonpayable",
      "type": "function"
    },
    {
      "inputs": [
        {
          "internalType": "uint256",
          "name": "questId",
          "type": "uint256"
        },
        {
          "internalType": "bool",
          "name": "isActive",
          "type": "bool"
        }
      ],
      "name": "setQuestActive",
      "outputs": [],
      "stateMutability": "nonpayable",
      "type": "function"
    },
    {
      "inputs": [
        {
          "internalType": "address",
          "name": "_treasury",
          "type": "address"
        }
      ],
      "name": "setTreasury",
      "outputs": [],
      "stateMutability": "nonpayable",
      "type": "function"
    },
    {
      "inputs": [],
      "name": "symbol",
      "outputs": [
        {
          "internalType": "string",
          "name": "",
          "type": "string"
        }
      ],
      "stateMutability": "view",
      "type": "function"
    },
    {
      "inputs": [],
      "name": "totalSupply",
      "outputs": [
        {
          "internalType": "uint256",
          "name": "",
          "type": "uint256"
        }
      ],
      "stateMutability": "view",
      "type": "function"
    },
    {
      "inputs": [
        {
          "internalType": "address",
          "name": "to",
          "type": "address"
        },
        {
          "internalType": "uint256",
          "name": "value",
          "type": "uint256"
        }
      ],
      "name": "transfer",
      "outputs": [
        {
          "internalType": "bool",
          "name": "",
          "type": "bool"
        }
      ],
      "stateMutability": "nonpayable",
      "type": "function"
    },
    {
      "inputs": [
        {
          "internalType": "address",
          "name": "from",
          "type": "address"
        },
        {
          "internalType": "address",
          "name": "to",
          "type": "address"
        },
        {
          "internalType": "uint256",
          "name": "value",
          "type": "uint256"
        }
      ],
      "name": "transferFrom",
      "outputs": [
        {
          "internalType": "bool",
          "name": "",
          "type": "bool"
        }
      ],
      "stateMutability": "nonpayable",
      "type": "function"
    },
    {
      "inputs": [
        {
          "internalType": "address",
          "name": "newOwner",
          "type": "address"
        }
      ],
      "name": "transferOwnership",
      "outputs": [],
      "stateMutability": "nonpayable",
      "type": "function"
    },
    {
      "inputs": [],
      "name": "treasury",
      "outputs": [
        {
          "internalType": "address",
          "name": "",
          "type": "address"
        }
      ],
      "stateMutability": "view",
      "type": "function"
    },
    {
      "inputs": [
        {
          "internalType": "bytes32",
          "name": "",
          "type": "bytes32"
        }
      ],
      "name": "usedProofHashes",
      "outputs": [
        {
          "internalType": "bool",
          "name": "",
          "type": "bool"
        }
      ],
      "stateMutability": "view",
      "type": "function"
    },
    {
      "inputs": [
        {
          "internalType": "address",
          "name": "",
          "type": "address"
        }
      ],
      "name": "userProfiles",
      "outputs": [
        {
          "internalType": "enum ImpactQuest.UserLevel",
          "name": "level",
          "type": "uint8"
        },
        {
          "internalType": "uint256",
          "name": "totalImpactScore",
          "type": "uint256"
        },
        {
          "internalType": "uint256",
          "name": "questsCompleted",
          "type": "uint256"
        },
        {
          "internalType": "uint256",
          "name": "lastQuestTimestamp",
          "type": "uint256"
        },
        {
          "internalType": "uint256",
          "name": "joinedTimestamp",
          "type": "uint256"
        },
        {
          "internalType": "bool",
          "name": "isActive",
          "type": "bool"
        }
      ],
      "stateMutability": "view",
      "type": "function"
    }
  ],
  "bytecode": "0x60806040526001600f5560016010553480156200001b57600080fd5b50604051620046da380380620046da8339810160408190526200003e91620001b9565b336040518060400160405280601181526020017024b6b830b1ba28bab2b9ba102a37b5b2b760791b815250604051806040016040528060038152602001620494d560ec1b815250816003908162000096919062000290565b506004620000a5828262000290565b5050506001600160a01b038116620000d857604051631e4fbdf760e01b8152600060048201526024015b60405180910390fd5b620000e38162000167565b5060016006556001600160a01b038116620001415760405162461bcd60e51b815260206004820152601660248201527f496e76616c6964206f7261636c652061646472657373000000000000000000006044820152606401620000cf565b601180546001600160a01b0319166001600160a01b03929092169190911790556200035c565b600580546001600160a01b038381166001600160a01b0319831681179093556040519116919082907f8be0079c531659141344cd1fd0a4f28419497f9722a3daafe3b4186f6b6457e090600090a35050565b600060208284031215620001cc57600080fd5b81516001600160a01b0381168114620001e457600080fd5b9392505050565b634e487b7160e01b600052604160045260246000fd5b600181811c908216806200021657607f821691505b6020821081036200023757634e487b7160e01b600052602260045260246000fd5b50919050565b601f8211156200028b57600081815260208120601f850160051c81016020861015620002665750805b601f850160051c820191505b81811015620002875782815560010162000272565b5050505b505050565b81516001600160401b03811115620002ac57620002ac620001eb565b620002c481620002bd845462000201565b846200023d565b602080601f831160018114620002fc5760008415620002e35750858301515b600019600386901b1c1916600185901b17855562000287565b600085815260208120601f198616915b828110156200032d578886015182559484019460019091019084016200030c565b50858210156200034c5787850151600019600388901b60f8161c191681555b5050505050600190811b01905550565b61436e806200036c6000396000f3fe6080604052600436106102c95760003560e01c80638da5cb5b11610175578063d87318b2116100dc578063ede9646e11610095578063f2fde38b1161006f578063f2fde38b1461095b578063f864715d1461097b578063fb9e9d9a1461099b578063fd47465c146109bb57600080fd5b8063ede9646e14610908578063f0f4426014610928578063f2893e241461094857600080fd5b8063d87318b214610807578063d8f3384014610837578063dd62ed3e1461086d578063e085f980146108b3578063e2478578146108d3578063e4815c48146108f357600080fd5b8063a9059cbb1161012e578063a9059cbb1461072f578063b5c604ff1461074f578063bb39f56f14610764578063d2a1a10a146107bb578063d638c983146107db578063d7ca38f3146107f157600080fd5b80638da5cb5b146106875780639047a969146106a557806395d89b41146106ba578063987ee156146106cf578063a2cd68af146106ef578063a89ae4ba1461070f57600080fd5b80633ef787d5116102345780635ab492f4116101ed57806370a08231116101c757806370a08231146105ef578063715018a61461062557806381255cc21461063a5780638cb3170a1461065a57600080fd5b80635ab492f414610577578063611c584d1461059757806361d027b3146105b757600080fd5b80633ef787d5146104b55780633f9a61e0146104cb578063443886d7146104eb57806349f86f341461050b5780634c69c00f14610542578063555990261461056257600080fd5b806323b872dd1161028657806323b872dd146103ac5780632947dabd146103cc578063313ce567146103e8578063332d56d71461040457806333ea3dc81461046b57806338767b60146104a057600080fd5b806303833486146102ce57806306fdde03146102f6578063095ea7b31461031857806313226a971461034857806318160ddd146103755780631c3293371461038a575b600080fd5b3480156102da57600080fd5b506102e3600a81565b6040519081526020015b60405180910390f35b34801561030257600080fd5b5061030b6109f3565b6040516102ed919061397e565b34801561032457600080fd5b506103386103333660046139b4565b610a85565b60405190151581526020016102ed565b34801561035457600080fd5b506103686103633660046139ed565b610a9f565b6040516102ed9190613a08565b34801561038157600080fd5b506002546102e3565b34801561039657600080fd5b506103aa6103a5366004613a4c565b610c85565b005b3480156103b857600080fd5b506103386103c7366004613a81565b610d42565b3480156103d857600080fd5b506102e3678ac7230489e8000081565b3480156103f457600080fd5b50604051601281526020016102ed565b34801561041057600080fd5b5061045961041f366004613abd565b60076020526000908152604090208054600182015460028301546003840154600485015460059095015460ff948516959394929391921686565b6040516102ed96959493929190613b19565b34801561047757600080fd5b5061048b610486366004613b51565b610d66565b6040516102ed99989796959493929190613b6a565b3480156104ac57600080fd5b506102e3609681565b3480156104c157600080fd5b506102e36101f481565b3480156104d757600080fd5b5061030b6104e63660046139ed565b610fc4565b3480156104f757600080fd5b5061030b610506366004613abd565b611136565b34801561051757600080fd5b5061052b610526366004613b51565b61126c565b6040516102ed9b9a99989796959493929190613be4565b34801561054e57600080fd5b506103aa61055d366004613abd565b6114d1565b34801561056e57600080fd5b506102e3603281565b34801561058357600080fd5b506102e3610592366004613d10565b61157a565b3480156105a357600080fd5b506103aa6105b2366004613dab565b611858565b3480156105c357600080fd5b506012546105d7906001600160a01b031681565b6040516001600160a01b0390911681526020016102ed565b3480156105fb57600080fd5b506102e361060a366004613abd565b6001600160a01b031660009081526020819052604090205490565b34801561063157600080fd5b506103aa611915565b34801561064657600080fd5b506102e3610655366004613e02565b611929565b34801561066657600080fd5b5061067a6106753660046139b4565b611a92565b6040516102ed9190613e35565b34801561069357600080fd5b506005546001600160a01b03166105d7565b3480156106b157600080fd5b506103aa611d7e565b3480156106c657600080fd5b5061030b611ec0565b3480156106db57600080fd5b506104596106ea366004613abd565b611ecf565b3480156106fb57600080fd5b506103aa61070a366004613f1e565b611fa3565b34801561071b57600080fd5b506011546105d7906001600160a01b031681565b34801561073b57600080fd5b5061033861074a3660046139b4565b612876565b34801561075b57600080fd5b50600c546102e3565b34801561077057600080fd5b5061078461077f366004613b51565b612884565b604080519687526001600160a01b0390951660208701529385019290925260608401526080830152151560a082015260c0016102ed565b3480156107c757600080fd5b506103386107d63660046139b4565b61296e565b3480156107e757600080fd5b506102e3600f5481565b3480156107fd57600080fd5b506102e360105481565b34801561081357600080fd5b50610338610822366004613b51565b600a6020526000908152604090205460ff1681565b34801561084357600080fd5b506102e3610852366004613abd565b6001600160a01b03166000908152600d602052604090205490565b34801561087957600080fd5b506102e3610888366004613f51565b6001600160a01b03918216600090815260016020908152604080832093909416825291909152205490565b3480156108bf57600080fd5b5061052b6108ce366004613b51565b612a00565b3480156108df57600080fd5b506107846108ee366004613b51565b612b78565b3480156108ff57600080fd5b50600b546102e3565b34801561091457600080fd5b5061048b610923366004613b51565b612bcb565b34801561093457600080fd5b506103aa610943366004613abd565b612cc5565b6103aa610956366004613dab565b612cef565b34801561096757600080fd5b506103aa610976366004613abd565b612f5d565b34801561098757600080fd5b506103686109963660046139ed565b612f9b565b3480156109a757600080fd5b506103686109b6366004613abd565b613028565b3480156109c757600080fd5b506102e36109d63660046139b4565b600860209081526000928352604080842090915290825290205481565b606060038054610a0290613f7b565b80601f0160208091040260200160405190810160405280929190818152602001828054610a2e90613f7b565b8015610a7b5780601f10610a5057610100808354040283529160200191610a7b565b820191906000526020600020905b815481529060010190602001808311610a5e57829003601f168201915b5050505050905090565b600033610a93818585613157565b60019150505b92915050565b60606000600e6000846004811115610ab957610ab9613ad8565b6004811115610aca57610aca613ad8565b8152602001908152602001600020805480602002602001604051908101604052809291908181526020018280548015610b2257602002820191906000526020600020905b815481526020019060010190808311610b0e575b505050505090506000805b8251811015610b925760096000848381518110610b4c57610b4c613fb5565b60209081029190910181015182528101919091526040016000206005015460ff1615610b805781610b7c81613fe1565b9250505b80610b8a81613fe1565b915050610b2d565b5060008167ffffffffffffffff811115610bae57610bae613c6d565b604051908082528060200260200182016040528015610bd7578160200160208202803683370190505b5090506000805b8451811015610c7a5760096000868381518110610bfd57610bfd613fb5565b60209081029190910181015182528101919091526040016000206005015460ff1615610c6857848181518110610c3557610c35613fb5565b6020026020010151838381518110610c4f57610c4f613fb5565b602090810291909101015281610c6481613fe1565b9250505b80610c7281613fe1565b915050610bde565b509095945050505050565b610c8d613164565b600082815260096020526040812054839103610ce75760405162461bcd60e51b8152602060048201526014602482015273145d595cdd08191bd95cc81b9bdd08195e1a5cdd60621b60448201526064015b60405180910390fd5b600083815260096020908152604091829020600501805460ff1916851515908117909155915191825284917ff2b6cca8eca86ac430e8056334e4540da3a2aa8870e6170cf530ab3812e77d5d910160405180910390a2505050565b600033610d50858285613191565b610d5b858585613210565b506001949350505050565b600080600080600060606000806000808a118015610d8557506010548a105b610dca5760405162461bcd60e51b8152602060048201526016602482015275125b9d985b1a59081d1c985b9cd858dd1a5bdb88125160521b6044820152606401610cde565b6000600c610dd960018d613ffa565b81548110610de957610de9613fb5565b6000918252602091829020604080516101208101825260079093029091018054835260018101546001600160a01b0381169484019490945291929083019060ff600160a01b909104166004811115610e4357610e43613ad8565b6004811115610e5457610e54613ad8565b81526020016002820154815260200160038201548152602001600482018054610e7c90613f7b565b80601f0160208091040260200160405190810160405280929190818152602001828054610ea890613f7b565b8015610ef55780601f10610eca57610100808354040283529160200191610ef5565b820191906000526020600020905b815481529060010190602001808311610ed857829003601f168201915b505050918352505060058201546020820152600682015460409091019060ff166004811115610f2657610f26613ad8565b6004811115610f3757610f37613ad8565b81526020016006820160019054906101000a900460ff166004811115610f5f57610f5f613ad8565b6004811115610f7057610f70613ad8565b815250509050806000015181602001518260400151836060015184608001518560a001518660c001518760e00151886101000151995099509950995099509950995099509950509193959799909294969850565b60606000826004811115610fda57610fda613ad8565b0361100857505060408051808201909152600d81526c115b9d9a5c9bdb9b595b9d185b609a1b602082015290565b600182600481111561101c5761101c613ad8565b0361104e575050604080518082019091526011815270436f6d6d756e697479205365727669636560781b602082015290565b600282600481111561106257611062613ad8565b0361108c57505060408051808201909152600981526822b23ab1b0ba34b7b760b91b602082015290565b60038260048111156110a0576110a0613ad8565b036110d057505060408051808201909152600f81526e2bb0b9ba32902932b23ab1ba34b7b760891b602082015290565b60048260048111156110e4576110e4613ad8565b0361111357505060408051808201909152600e81526d5375737461696e6162696c69747960901b602082015290565b50506040805180820190915260078152662ab735b737bbb760c91b602082015290565b6001600160a01b03811660009081526007602052604090205460609060ff16600481600481111561116957611169613ad8565b036111905750506040805180820190915260048152635472656560e01b6020820152919050565b60038160048111156111a4576111a4613ad8565b036111ce5750506040805180820190915260078152665361706c696e6760c81b6020820152919050565b60028160048111156111e2576111e2613ad8565b0361120b57505060408051808201909152600681526514dc1c9bdd5d60d21b6020820152919050565b600181600481111561121f5761121f613ad8565b0361124a575050604080518082019091526008815267536565646c696e6760c01b6020820152919050565b50506040805180820190915260048152634e6f6e6560e01b6020820152919050565b60006060806000806000806000806000806000600960008e815260200190815260200160002060405180610160016040529081600082015481526020016001820180546112b890613f7b565b80601f01602080910402602001604051908101604052809291908181526020018280546112e490613f7b565b80156113315780601f1061130657610100808354040283529160200191611331565b820191906000526020600020905b81548152906001019060200180831161131457829003601f168201915b5050505050815260200160028201805461134a90613f7b565b80601f016020809104026020016040519081016040528092919081815260200182805461137690613f7b565b80156113c35780601f10611398576101008083540402835291602001916113c3565b820191906000526020600020905b8154815290600101906020018083116113a657829003601f168201915b5050509183525050600382015460208201526004808301546040830152600583015460ff9081161515606084015260068401546080840152600784015460a090930192169081111561141757611417613ad8565b600481111561142857611428613ad8565b81526020016007820160019054906101000a90046001600160a01b03166001600160a01b03166001600160a01b03168152602001600882015481526020016009820154815250509050806000015181602001518260400151836060015184608001518560a001518660c001518760e001518861010001518961012001518a61014001519b509b509b509b509b509b509b509b509b509b509b505091939597999b90929496989a50565b6114d9613164565b6001600160a01b0381166115285760405162461bcd60e51b8152602060048201526016602482015275496e76616c6964206f7261636c65206164647265737360501b6044820152606401610cde565b601180546001600160a01b038381166001600160a01b0319831681179093556040519116919082907fd3afd1676752459d3aa8b6f73633fac8efd724610da9c4cd8d8e4fa1631841fb90600090a35050565b6000808851116115c25760405162461bcd60e51b8152602060048201526013602482015272145d595cdd081b985b59481c995c5d5a5c9959606a1b6044820152606401610cde565b600086116116125760405162461bcd60e51b815260206004820152601760248201527f526577617264206d75737420626520706f7369746976650000000000000000006044820152606401610cde565b600085116116625760405162461bcd60e51b815260206004820152601d60248201527f496d706163742073636f7265206d75737420626520706f7369746976650000006044820152606401610cde565b600f80546000918261167383613fe1565b9190505590506040518061016001604052808281526020018a81526020018981526020018881526020018781526020016001151581526020018681526020018560048111156116c4576116c4613ad8565b8152336020808301919091526040808301879052600060609093018390528483526009825290912082518155908201516001820190611703908261405b565b5060408201516002820190611718908261405b565b5060608201516003820155608082015160048083019190915560a083015160058301805491151560ff1992831617905560c0840151600684015560e0840151600784018054919390929190911690600190849081111561177a5761177a613ad8565b021790555061010082810151600783018054610100600160a81b0319166001600160a01b03909216909202179055610120820151600882015561014090910151600990910155600e60008560048111156117d6576117d6613ad8565b60048111156117e7576117e7613ad8565b81526020808201929092526040908101600090812080546001810182559082529290209091018290555181907f081a3e146b56e9690728c0eb05145923b1d36a59d7dc8175ad7133d1aef84f3690611844908c908b908b9061411b565b60405180910390a298975050505050505050565b6011546001600160a01b031633146118825760405162461bcd60e51b8152600401610cde90614140565b6001600160a01b03831660009081526007602052604090206005015460ff166118bd5760405162461bcd60e51b8152600401610cde90614177565b6118c7838361326f565b611910836004846000856040516020016118e191906141a4565b60408051601f198184030181529181526001600160a01b038a1660009081526007602052205460ff16806132a9565b505050565b61191d613164565b61192760006134c7565b565b600080600e600084600481111561194257611942613ad8565b600481111561195357611953613ad8565b81526020019081526020016000208054806020026020016040519081016040528092919081815260200182805480156119ab57602002820191906000526020600020905b815481526020019060010190808311611997575b505050505090506000915060005b600b54811015611a8a57846001600160a01b0316600b82815481106119e0576119e0613fb5565b60009182526020909120600160069092020101546001600160a01b031603611a785760005b8251811015611a7657828181518110611a2057611a20613fb5565b6020026020010151600b8381548110611a3b57611a3b613fb5565b90600052602060002090600602016000015403611a645783611a5c81613fe1565b945050611a76565b80611a6e81613fe1565b915050611a05565b505b80611a8281613fe1565b9150506119b9565b505092915050565b6001600160a01b0382166000908152600d60209081526040808320805482518185028101850190935280835260609493830182828015611af157602002820191906000526020600020905b815481526020019060010190808311611add575b50505050509050600081518411611b085783611b0b565b81515b905060008167ffffffffffffffff811115611b2857611b28613c6d565b604051908082528060200260200182016040528015611b6157816020015b611b4e6138d2565b815260200190600190039081611b465790505b50905060005b82811015611d74576000848260018751611b819190613ffa565b611b8b9190613ffa565b81518110611b9b57611b9b613fb5565b60200260200101519050600c8181548110611bb857611bb8613fb5565b6000918252602091829020604080516101208101825260079093029091018054835260018101546001600160a01b0381169484019490945291929083019060ff600160a01b909104166004811115611c1257611c12613ad8565b6004811115611c2357611c23613ad8565b81526020016002820154815260200160038201548152602001600482018054611c4b90613f7b565b80601f0160208091040260200160405190810160405280929190818152602001828054611c7790613f7b565b8015611cc45780601f10611c9957610100808354040283529160200191611cc4565b820191906000526020600020905b815481529060010190602001808311611ca757829003601f168201915b505050918352505060058201546020820152600682015460409091019060ff166004811115611cf557611cf5613ad8565b6004811115611d0657611d06613ad8565b81526020016006820160019054906101000a900460ff166004811115611d2e57611d2e613ad8565b6004811115611d3f57611d3f613ad8565b81525050838381518110611d5557611d55613fb5565b6020026020010181905250508080611d6c90613fe1565b915050611b67565b5095945050505050565b3360009081526007602052604090206005015460ff1615611de15760405162461bcd60e51b815260206004820152601760248201527f5573657220616c726561647920726567697374657265640000000000000000006044820152606401610cde565b6040805160c0810182526000808252602080830182905282840182905260608301829052426080840152600160a08401819052338352600790915292902081518154929391929091839160ff191690836004811115611e4257611e42613ad8565b021790555060208281015160018301556040808401516002840155606084015160038401556080840151600484015560a0909301516005909201805460ff191692151592909217909155905142815233917fead8f8569db46abf73ccebcdaef3739e92c4df800b36c5c6382a49a0b1928e66910160405180910390a2565b606060048054610a0290613f7b565b6001600160a01b038116600090815260076020526040808220815160c081019092528054839283928392839283928392829060ff166004811115611f1557611f15613ad8565b6004811115611f2657611f26613ad8565b8152602001600182015481526020016002820154815260200160038201548152602001600482015481526020016005820160009054906101000a900460ff1615151515815250509050806000015181602001518260400151836060015184608001518560a001519650965096509650965096505091939550919395565b6011546001600160a01b03163314611fcd5760405162461bcd60e51b8152600401610cde90614140565b6000828152600960205260408120548391036120225760405162461bcd60e51b8152602060048201526014602482015273145d595cdd08191bd95cc81b9bdd08195e1a5cdd60621b6044820152606401610cde565b600083815260096020526040902060050154839060ff1661207b5760405162461bcd60e51b81526020600482015260136024820152725175657374206973206e6f742061637469766560681b6044820152606401610cde565b612083613519565b6001600160a01b03851660009081526007602052604090206005015460ff166120be5760405162461bcd60e51b8152600401610cde90614177565b6000838152600a602052604090205460ff16156121125760405162461bcd60e51b8152602060048201526012602482015271141c9bdbd988185b1c9958591e481d5cd95960721b6044820152606401610cde565b826121545760405162461bcd60e51b8152602060048201526012602482015271092dcecc2d8d2c840e0e4dedecc40d0c2e6d60731b6044820152606401610cde565b600060096000868152602001908152602001600020604051806101600160405290816000820154815260200160018201805461218f90613f7b565b80601f01602080910402602001604051908101604052809291908181526020018280546121bb90613f7b565b80156122085780601f106121dd57610100808354040283529160200191612208565b820191906000526020600020905b8154815290600101906020018083116121eb57829003601f168201915b5050505050815260200160028201805461222190613f7b565b80601f016020809104026020016040519081016040528092919081815260200182805461224d90613f7b565b801561229a5780601f1061226f5761010080835404028352916020019161229a565b820191906000526020600020905b81548152906001019060200180831161227d57829003601f168201915b5050509183525050600382015460208201526004808301546040830152600583015460ff9081161515606084015260068401546080840152600784015460a09093019216908111156122ee576122ee613ad8565b60048111156122ff576122ff613ad8565b815260078201546001600160a01b036101009091048116602080840191909152600880850154604080860191909152600990950154606090940193909352908a1660009081529181528282208983529052205460c08201519192509061236590826141d4565b4210156123b45760405162461bcd60e51b815260206004820152601a60248201527f517565737420636f6f6c646f776e206e6f7420657870697265640000000000006044820152606401610cde565b6000858152600a60209081526040808320805460ff191660019081179091556001600160a01b038b16845260079092528220805460808601519282018054929460ff92909216939290919061240a9084906141d4565b92505081905550600182600201600082825461242691906141d4565b909155505042600383018190556001600160a01b038a811660008181526008602090815260408083208e84528252808320869055805160c0810182528e8152918201938452810194855260608082018d8152908a01805160808401908152600160a08501818152600b8054928301815590965293517f0175b7a638427703f0dbe7bb9bbf987a2551717b34e79f33b5b1008d1fa01db960069095029485015594517f0175b7a638427703f0dbe7bb9bbf987a2551717b34e79f33b5b1008d1fa01dba840180546001600160a01b031916919097161790955594517f0175b7a638427703f0dbe7bb9bbf987a2551717b34e79f33b5b1008d1fa01dbb82015593517f0175b7a638427703f0dbe7bb9bbf987a2551717b34e79f33b5b1008d1fa01dbc85015590517f0175b7a638427703f0dbe7bb9bbf987a2551717b34e79f33b5b1008d1fa01dbd840155517f0175b7a638427703f0dbe7bb9bbf987a2551717b34e79f33b5b1008d1fa01dbe909201805460ff191692151592909217909155516125b1908a9061326f565b6125e889600086606001518b88602001516040516020016125d291906141e7565b60405160208183030381529060405286876132a9565b6101008401516001600160a01b03161580159061260a57506000846101200151115b1561271e5761262384610100015185610120015161326f565b60008881526009602081905260408220018054600192906126459084906141d4565b925050819055506126bb84610100015160028661012001518b88602001516040516020016126739190614220565b60408051601f198184030181529181526101008b0180516001600160a01b03908116600090815260076020528381205492519091168152919091205460ff91821691166132a9565b61010084015161012085015160008a815260096020818152604092839020909101548251938452908301528a926001600160a01b0316917f64e1fa22678925294d4231c5729cbb631da293b4d70ab0108bfb6f5a598df019910160405180910390a35b600061272d8360010154613543565b905081600481111561274157612741613ad8565b81600481111561275357612753613ad8565b1461280d5782548190849060ff1916600183600481111561277657612776613ad8565b0217905550678ac7230489e8000061278e8b8261326f565b6127c68b60018360006127a08761358e565b6040516020016127b09190614265565b60405160208183030381529060405288886132a9565b8a6001600160a01b03167f090858214f50d1ef592490599889d04973d69c13ff6a0639567fbf123649c9fa8484426040516128039392919061429d565b60405180910390a2505b60608086015160408051428152602081018c9052908101919091528a916001600160a01b038d16917f66609b14de95e77d50240c1dffa83760d541dfb8a29f5812afa6575fd66ed9e4910160405180910390a3505050505061286f6001600655565b5050505050565b600033610a93818585613210565b600080600080600080600b8054905087106128d75760405162461bcd60e51b8152602060048201526013602482015272496e646578206f7574206f6620626f756e647360681b6044820152606401610cde565b6000600b88815481106128ec576128ec613fb5565b60009182526020918290206040805160c081018252600693909302909101805480845260018201546001600160a01b0316948401859052600282015492840183905260038201546060850181905260048301546080860181905260059093015460ff16151560a0909501859052909d949c50919a509098509650945092505050565b6001600160a01b03821660009081526007602052604081206005015460ff1661299957506000610a99565b60008281526009602052604090206005015460ff166129ba57506000610a99565b6001600160a01b03831660009081526008602090815260408083208584528252808320546009909252909120600601546129f481836141d4565b42101595945050505050565b60096020526000908152604090208054600182018054919291612a2290613f7b565b80601f0160208091040260200160405190810160405280929190818152602001828054612a4e90613f7b565b8015612a9b5780601f10612a7057610100808354040283529160200191612a9b565b820191906000526020600020905b815481529060010190602001808311612a7e57829003601f168201915b505050505090806002018054612ab090613f7b565b80601f0160208091040260200160405190810160405280929190818152602001828054612adc90613f7b565b8015612b295780601f10612afe57610100808354040283529160200191612b29565b820191906000526020600020905b815481529060010190602001808311612b0c57829003601f168201915b505050506003830154600484015460058501546006860154600787015460088801546009909801549697949693955060ff928316949193928116926101009091046001600160a01b031691908b565b600b8181548110612b8857600080fd5b60009182526020909120600690910201805460018201546002830154600384015460048501546005909501549395506001600160a01b0390921693909260ff1686565b600c8181548110612bdb57600080fd5b6000918252602090912060079091020180546001820154600283015460038401546004850180549496506001600160a01b03841695600160a01b90940460ff169492939192612c2990613f7b565b80601f0160208091040260200160405190810160405280929190818152602001828054612c5590613f7b565b8015612ca25780601f10612c7757610100808354040283529160200191612ca2565b820191906000526020600020905b815481529060010190602001808311612c8557829003601f168201915b50505050600583015460069093015491929160ff80821692506101009091041689565b612ccd613164565b601280546001600160a01b0319166001600160a01b0392909216919091179055565b6011546001600160a01b03163314612d195760405162461bcd60e51b8152600401610cde90614140565b612d21613519565b6001600160a01b03831660009081526007602052604090206005015460ff16612d5c5760405162461bcd60e51b8152600401610cde90614177565b81612d7c846001600160a01b031660009081526020819052604090205490565b1015612dca5760405162461bcd60e51b815260206004820152601a60248201527f496e73756666696369656e7420746f6b656e2062616c616e63650000000000006044820152606401610cde565b60003411612e125760405162461bcd60e51b815260206004820152601560248201527410d15313c81c185e5b595b9d081c995c5d5a5c9959605a1b6044820152606401610cde565b6012546001600160a01b0316612e5d5760405162461bcd60e51b815260206004820152601060248201526f151c99585cdd5c9e481b9bdd081cd95d60821b6044820152606401610cde565b612e67838361369d565b6012546040516000916001600160a01b03169034908381818185875af1925050503d8060008114612eb4576040519150601f19603f3d011682016040523d82523d6000602084013e612eb9565b606091505b5050905080612f015760405162461bcd60e51b815260206004820152601460248201527310d15313c81d1c985b9cd9995c8819985a5b195960621b6044820152606401610cde565b612f52846003612f10866142c7565b600086604051602001612f2391906142e3565b60408051601f198184030181529181526001600160a01b038b1660009081526007602052205460ff16806132a9565b506119106001600655565b612f65613164565b6001600160a01b038116612f8f57604051631e4fbdf760e01b815260006004820152602401610cde565b612f98816134c7565b50565b6060600e6000836004811115612fb357612fb3613ad8565b6004811115612fc457612fc4613ad8565b815260200190815260200160002080548060200260200160405190810160405280929190818152602001828054801561301c57602002820191906000526020600020905b815481526020019060010190808311613008575b50505050509050919050565b6001600160a01b0381166000908152600d6020908152604080832080548251818502810185019093528083526060949383018282801561308757602002820191906000526020600020905b815481526020019060010190808311613073575b505050505090506000815167ffffffffffffffff8111156130aa576130aa613c6d565b6040519080825280602002602001820160405280156130d3578160200160208202803683370190505b50905060005b825181101561314f57600c8382815181106130f6576130f6613fb5565b60200260200101518154811061310e5761310e613fb5565b90600052602060002090600702016000015482828151811061313257613132613fb5565b60209081029190910101528061314781613fe1565b9150506130d9565b509392505050565b61191083838360016136d3565b6005546001600160a01b031633146119275760405163118cdaa760e01b8152336004820152602401610cde565b6001600160a01b0383811660009081526001602090815260408083209386168352929052205460001981101561320a57818110156131fb57604051637dc7a0d960e11b81526001600160a01b03841660048201526024810182905260448101839052606401610cde565b61320a848484840360006136d3565b50505050565b6001600160a01b03831661323a57604051634b637e8f60e11b815260006004820152602401610cde565b6001600160a01b0382166132645760405163ec442f0560e01b815260006004820152602401610cde565b6119108383836137a8565b6001600160a01b0382166132995760405163ec442f0560e01b815260006004820152602401610cde565b6132a5600083836137a8565b5050565b60108054600091826132ba83613fe1565b919050559050600c6040518061012001604052808381526020018a6001600160a01b031681526020018960048111156132f5576132f5613ad8565b815260200188815260200187815260200186815260200142815260200185600481111561332457613324613ad8565b815260200184600481111561333b5761333b613ad8565b9052815460018181018455600093845260209384902083516007909302019182559282015192810180546001600160a01b039094166001600160a01b0319851681178255604084015193949293926001600160a81b03191617600160a01b8360048111156133ab576133ab613ad8565b0217905550606082015160028201556080820151600382015560a082015160048201906133d8908261405b565b5060c0820151600582015560e082015160068201805460ff1916600183600481111561340657613406613ad8565b0217905550610100828101516006830180549192909161ff0019169083600481111561343457613434613ad8565b021790555050506001600160a01b0388166000908152600d6020526040902061345e600183613ffa565b815460018101835560009283526020909220909101556040516001600160a01b0389169082907fa0b9190e15ac069f48c64dd5c758d70a4d26e37ea2d59723ae5f58c055adee74906134b5908b908b904290614317565b60405180910390a35050505050505050565b600580546001600160a01b038381166001600160a01b0319831681179093556040519116919082907f8be0079c531659141344cd1fd0a4f28419497f9722a3daafe3b4186f6b6457e090600090a35050565b60026006540361353c57604051633ee5aeb560e01b815260040160405180910390fd5b6002600655565b60006101f4821061355657506004919050565b6096821061356657506003919050565b6032821061357657506002919050565b600a821061358657506001919050565b506000919050565b606060048260048111156135a4576135a4613ad8565b036135c95750506040805180820190915260048152635472656560e01b602082015290565b60038260048111156135dd576135dd613ad8565b036136055750506040805180820190915260078152665361706c696e6760c81b602082015290565b600282600481111561361957613619613ad8565b0361364057505060408051808201909152600681526514dc1c9bdd5d60d21b602082015290565b600182600481111561365457613654613ad8565b0361367d575050604080518082019091526008815267536565646c696e6760c01b602082015290565b50506040805180820190915260048152634e6f6e6560e01b602082015290565b6001600160a01b0382166136c757604051634b637e8f60e11b815260006004820152602401610cde565b6132a5826000836137a8565b6001600160a01b0384166136fd5760405163e602df0560e01b815260006004820152602401610cde565b6001600160a01b03831661372757604051634a1406b160e11b815260006004820152602401610cde565b6001600160a01b038085166000908152600160209081526040808320938716835292905220829055801561320a57826001600160a01b0316846001600160a01b03167f8c5be1e5ebec7d5bd14f71427d1e84f3dd0314c0f7b2291e5b200ac8c7c3b9258460405161379a91815260200190565b60405180910390a350505050565b6001600160a01b0383166137d35780600260008282546137c891906141d4565b909155506138459050565b6001600160a01b038316600090815260208190526040902054818110156138265760405163391434e360e21b81526001600160a01b03851660048201526024810182905260448101839052606401610cde565b6001600160a01b03841660009081526020819052604090209082900390555b6001600160a01b03821661386157600280548290039055613880565b6001600160a01b03821660009081526020819052604090208054820190555b816001600160a01b0316836001600160a01b03167fddf252ad1be2c89b69c2b068fc378daa952ba7f163c4a11628f55a4df523b3ef836040516138c591815260200190565b60405180910390a3505050565b604080516101208101825260008082526020820181905290918201908152602001600081526020016000815260200160608152602001600081526020016000600481111561392257613922613ad8565b81526020016000905290565b60005b83811015613949578181015183820152602001613931565b50506000910152565b6000815180845261396a81602086016020860161392e565b601f01601f19169290920160200192915050565b6020815260006139916020830184613952565b9392505050565b80356001600160a01b03811681146139af57600080fd5b919050565b600080604083850312156139c757600080fd5b6139d083613998565b946020939093013593505050565b8035600581106139af57600080fd5b6000602082840312156139ff57600080fd5b613991826139de565b6020808252825182820181905260009190848201906040850190845b81811015613a4057835183529284019291840191600101613a24565b50909695505050505050565b60008060408385031215613a5f57600080fd5b8235915060208301358015158114613a7657600080fd5b809150509250929050565b600080600060608486031215613a9657600080fd5b613a9f84613998565b9250613aad60208501613998565b9150604084013590509250925092565b600060208284031215613acf57600080fd5b61399182613998565b634e487b7160e01b600052602160045260246000fd5b60058110612f9857634e487b7160e01b600052602160045260246000fd5b613b1581613aee565b9052565b60c08101613b2688613aee565b9681526020810195909552604085019390935260608401919091526080830152151560a09091015290565b600060208284031215613b6357600080fd5b5035919050565b8981526001600160a01b03891660208201526000610120613b8a8a613aee565b8960408401528860608401528760808401528060a0840152613bae81840188613952565b9150508460c0830152613bc084613aee565b8360e0830152613bcf83613aee565b826101008301529a9950505050505050505050565b60006101608d8352806020840152613bfe8184018e613952565b90508281036040840152613c12818d613952565b91505089606083015288608083015287151560a08301528660c0830152613c3886613aee565b60e08201959095526001600160a01b039390931661010084015261012083019190915261014090910152979650505050505050565b634e487b7160e01b600052604160045260246000fd5b600082601f830112613c9457600080fd5b813567ffffffffffffffff80821115613caf57613caf613c6d565b604051601f8301601f19908116603f01168101908282118183101715613cd757613cd7613c6d565b81604052838152866020858801011115613cf057600080fd5b836020870160208301376000602085830101528094505050505092915050565b600080600080600080600060e0888a031215613d2b57600080fd5b873567ffffffffffffffff80821115613d4357600080fd5b613d4f8b838c01613c83565b985060208a0135915080821115613d6557600080fd5b50613d728a828b01613c83565b965050604088013594506060880135935060808801359250613d9660a089016139de565b915060c0880135905092959891949750929550565b600080600060608486031215613dc057600080fd5b613dc984613998565b925060208401359150604084013567ffffffffffffffff811115613dec57600080fd5b613df886828701613c83565b9150509250925092565b60008060408385031215613e1557600080fd5b613e1e83613998565b9150613e2c602084016139de565b90509250929050565b60006020808301818452808551808352604092508286019150828160051b87010184880160005b83811015613f1057603f19898403018552815180518452878101516001600160a01b0316888501528681015161012090613e9889870182613b0c565b50606082810151908601526080808301519086015260a080830151818701839052613ec583880182613952565b9250505060c080830151818701525060e080830151613ee682880182613b0c565b50506101009182015191613efc86820184613b0c565b509588019593505090860190600101613e5c565b509098975050505050505050565b600080600060608486031215613f3357600080fd5b613f3c84613998565b95602085013595506040909401359392505050565b60008060408385031215613f6457600080fd5b613f6d83613998565b9150613e2c60208401613998565b600181811c90821680613f8f57607f821691505b602082108103613faf57634e487b7160e01b600052602260045260246000fd5b50919050565b634e487b7160e01b600052603260045260246000fd5b634e487b7160e01b600052601160045260246000fd5b600060018201613ff357613ff3613fcb565b5060010190565b81810381811115610a9957610a99613fcb565b601f82111561191057600081815260208120601f850160051c810160208610156140345750805b601f850160051c820191505b8181101561405357828155600101614040565b505050505050565b815167ffffffffffffffff81111561407557614075613c6d565b614089816140838454613f7b565b8461400d565b602080601f8311600181146140be57600084156140a65750858301515b600019600386901b1c1916600185901b178555614053565b600085815260208120601f198616915b828110156140ed578886015182559484019460019091019084016140ce565b508582101561410b5787850151600019600388901b60f8161c191681555b5050505050600190811b01905550565b60608152600061412e6060830186613952565b60208301949094525060400152919050565b60208082526019908201527f4f6e6c79206f7261636c652063616e2063616c6c207468697300000000000000604082015260600190565b602080825260139082015272155cd95c881b9bdd081c9959da5cdd195c9959606a1b604082015260600190565b6702932b33ab7321d160c51b8152600082516141c781600885016020870161392e565b9190910160080192915050565b80820180821115610a9957610a99613fcb565b70021b7b6b83632ba32b21038bab2b9ba1d1607d1b81526000825161421381601185016020870161392e565b9190910160110192915050565b7f43726561746f722072657761726420666f722071756573743a2000000000000081526000825161425881601a85016020870161392e565b91909101601a0192915050565b6f02632bb32b6103ab8103137b73ab99d160851b81526000825161429081601085016020870161392e565b9190910160100192915050565b606081016142aa85613aee565b8482526142b684613aee565b602082019390935260400152919050565b6000600160ff1b82016142dc576142dc613fcb565b5060000390565b6b02932b232b2b6b2b21030ba160a51b81526000825161430a81600c85016020870161392e565b91909101600c0192915050565b6060810161432485613aee565b93815260208101929092526040909101529056fea2646970667358221220c9237f34fc491d56a28decb61d04de8a8399caf372910ca67ecca26c7e7aff0364736f6c63430008140033",
  "linkReferences": {},
  "deployedLinkReferences": {}
}